:020000040800F2
:10000000C04A0020E9020008D1250008AD220008FE
:100010008D25000843050008692F00080000000036
:10002000000000000000000000000000290200089D
:10003000690600080000000085020008A1280008E9
:100040000303000803030008030300080303000878
:100050000303000803030008030300080303000868
:100060000303000803030008030300080303000858
:100070000303000803030008030300080303000848
:100080000303000803030008030300080303000838
:100090004505000851050008030300080303000894
:1000A0000303000803030008030300080303000818
:1000B0000303000803030008030300080303000808
:1000C00003030008030300080303000803030008F8
:1000D00003030008092F00080303000803030008B6
:1000E00003030008030300080303000803030008D8
:1000F00003030008030300080303000803030008C8
:1001000003030008030300080303000803030008B7
:100110000303000803030008030300087129000813
:100120000303000803030008030300080303000897
:100130000303000803030008030300080303000887
:100140005D050008690500080303000803030008B3
:100150000303000803030008030300085D2F0008E1
:100160000303000803030008030300080303000857
:100170000303000803030008030300080000000055
:10018000030300080303000800F002F800F03CF845
:100190000AA090E8000C82448344AAF10107DA45E2
:1001A00001D100F031F8AFF2090EBAE80F0013F0F8
:1001B000010F18BFFB1A43F001031847D03A0000A3
:1001C000F03A0000103A24BF78C878C1FAD8520734
:1001D00024BF30C830C144BF04680C6070470000C1
:1001E0000023002400250026103A28BF78C1FBD840
:1001F000520728BF30C148BF0B6070471FB503F0DE
:10020000D7FC1FBD10B510BD00F061F91146FFF716
:10021000F5FF02F0E7FE00F07FF903B4FFF7F2FF0D
:1002200003BC00F087F900002C4B19680868B0E89F
:10023000F04F80F30988BFF36F8F4FF0000080F319
:10024000118870470000000008480068006880F3CB
:1002500008884FF0000080F3148862B661B6BFF3DF
:100260004F8FBFF36F8F00DF00BF00BF08ED00E0CE
:10027000DFF80C00016841F470010160704700BFB5
:1002800088ED00E0EFF30980BFF36F8F134B1A681E
:100290001EF0100F08BF20ED108A20E9F04F10600B
:1002A00009B44FF0500080F31188BFF34F8FBFF3B4
:1002B0006F8F03F0B5FA4FF0000080F3118809BC8E
:1002C00019680868B0E8F04F1EF0100F08BFB0ECD6
:1002D000108A80F30988BFF36F8F704748000020B1
:1002E000EFF3058070470000094880470948004740
:1002F000FEE7FEE7FEE7FEE7FEE7FEE7FEE7FEE7D6
:10030000FEE7FEE704480549054A064B7047000032
:100310006129000889010008C0440020C04A00206B
:10032000C0460020C046002053EA020C00F069805D
:100330002DE9F04B4FF00006002B1FBFB3FA83F5F9
:1003400003FA05F424FA05F65E4012BF1643B2FA2A
:1003500082F502FA05F4C5F120051EBF22FA05FC5C
:1003600044EA0C04203556EA044C4FEA144418BF02
:10037000641C4FF000084FF00009904271EB030C31
:1003800039D3002919BFB1FA81F701FA07F6B0FA9B
:1003900080F700FA07F6C7F120071EBF20FA07FC16
:1003A00046EA0C062037B6FBF4FCA7EB0507103F26
:1003B00007F01F0BCBF120060CFA0BFB2CFA06F60C
:1003C00044BFB3460026202FA4BF5E464FF0000B6B
:1003D0005BEA060C08BF4FF0010B19EB0B09ABFBF6
:1003E000027C48EB0608C01B06FB02CC0BFB03CCCF
:1003F00071EB0C01C1E70B46024641464846BDE899
:10040000F08B13B54FF000004FF00001AFF3008008
:10041000BDE81C40704710B5203AC0F00B80B1E831
:100420001850203AA0E81850B1E81850A0E8185029
:10043000BFF4F5AF5FEA027C24BFB1E81850A0E832
:10044000185044BF18C918C0BDE810405FEA827C4C
:1004500024BF51F8043B40F8043B08BF7047D20763
:1004600028BF31F8023B48BF11F8012B28BF20F804
:10047000023B48BF00F8012B70474FF0000200B567
:10048000134694469646203922BFA0E80C50A0E8B7
:100490000C50B1F12001BFF4F7AF090728BFA0E865
:1004A0000C5048BF0CC05DF804EB890028BF40F831
:1004B000042B08BF704748BF20F8022B11F0804F73
:1004C00018BF00F8012B704770477047704775469A
:1004D00000F02CF8AE4605006946534620F00700B0
:1004E000854618B020B5FFF70DFFBDE820404FF05E
:1004F00000064FF000074FF000084FF0000B21F00E
:100500000701AC46ACE8C009ACE8C009ACE8C009DA
:10051000ACE8C0098D46704710B50446AFF30080C3
:100520002046BDE81040FFF778BE00000048704745
:100530005C44002001491820ABBEFEE72600020003
:100540007047FEE7014800F004BA000004030020F1
:10055000014800F0FEB9000004030020014800F04B
:10056000F8B900002C030020014800F0F2B90000A7
:100570002C03002010B58AB04FF4007402940024BC
:100580000494059408240694040A8DF800408DF81C
:100590000100080A8DF80200100A8DF804008DF899
:1005A0000520180A8DF806008DF803108DF8073025
:1005B00008AB6A4602A9024800F06BF80AB010BD09
:1005C0000403002010B58AB040F2FF140294002406
:1005D0000494059408240694040A8DF800408DF8CC
:1005E0000100080A8DF80200100A8DF804008DF849
:1005F0000520180A8DF806008DF803108DF80730D5
:1006000008AB6A4602A9024800F043F80AB010BDE0
:100610002C030020124C134DE088E98810FB01F0F8
:1006200003B2A088A98810FB01F002B26088698833
:1006300010FB01F001B220882E8810FB06F000B2FA
:10064000FFF798FF0023B4F90810B4F90A001A461E
:10065000FFF7B8FF02F0FEF8012002F0FFFCDBE735
:100660007404002032000020704772B6FEE790F854
:100670002020012A07D0022A05D0416A41F48021B6
:10068000416201207047006842690A4342610020CC
:100690007047F0B590F820500468A468012D05D08B
:1006A000022D03D0416A41F480214DE014F0406FE7
:1006B00001D1E50045D5C4F301640125A5401D60C5
:1006C0008D684FF4C0739DB1CE6835434E6845EADE
:1006D000C605066803EB0417F5514FF4C2750768A9
:1006E00005EB04150E697E51097D012905D009E04D
:1006F0000E88CD6845EA4655EBE701684E5946F449
:1007000080764E511179D2F805504FF4C67641EA01
:100710000521056806EB0416A9511178D2F80120CD
:100720004FF4C47541EA0221026805EB04155151EA
:10073000006803EB0411425842F0010242500020CD
:10074000F0BD416A41F4001141620120F0BD00009A
:1007500010B590F82020012A07D0022A05D0416A5E
:1007600041F480214162012010BD3B48D0F80022B5
:1007700042F00102C0F80022D0F8002222F47C529C
:10078000C0F80022D0F800224B6A42EA0322C0F8E7
:1007900000220A7D02F01F0301229A40D0F81C3289
:1007A0009343C0F81C32CB69B3B9D0F80C329343F1
:1007B000C0F80C328C894B6864F31F434C6900EB22
:1007C000C404C4F840320C890B6864F31F434C69BD
:1007D00000EBC404C4F84432CB69012B16D1D0F825
:1007E0000C321343C0F80C320C884B6864F31F437F
:1007F0004C6900EBC404C4F840320C89CB6864F344
:100800001F434C6900EBC404C4F844328B69002BCD
:10081000D0F804320ED01343C0F804320B69002B19
:10082000D0F8143208D01343C0F81432096A0129F1
:1008300004D008E09343EFE79343F5E7D0F81C12A8
:100840001143C0F81C12D0F8001221F00101C0F8C9
:100850000012002010BD000000640040704770B519
:1008600090F82040012C05D0022C03D0416A41F4BD
:10087000802128E0046809B32469A40720D04FF43C
:10088000D874056804EB01142D5915F00405956022
:1008900005682D591AD0ED08556005682C5904F0EB
:1008A0000204D4604FF4DA74056804EB01142E5985
:1008B00006F00F06082E0CD308250DE0E468DCE7EF
:1008C000416A41F400114162012070BD6D0D156057
:1008D000E3E72D5905F00F05156105682D59C5F39E
:1008E0000725956105682C59240C54614FF4DC727E
:1008F000046802EB0112A4581C700468A458240A6E
:100900005C700468A458240C9C700468A258120EF1
:10091000DA704FF4DE72046802EB0112A4581C7105
:100920000468A458240A5C710468A458240C9C71BF
:100930000468A258120EDA71006829B1016941F009
:1009400020010161002070BDC16841F02001C1603B
:10095000F8E72DE9F05F0546006800244669D0F805
:1009600004908768D0F80CB0D0F810A0D0F81880A8
:10097000F10748D0F90714D001218160B80703D5E9
:10098000284600F094FA0CE0780702D54FF4006492
:1009900007E0380702D54FF4805402E0284600F003
:1009A00085FAF80516D529684FF480708860B80577
:1009B00003D5284600F07DFA0CE0780502D544F412
:1009C000005407E0380502D544F4804402E028468C
:1009D00000F06EFAF80316D529684FF4803088606D
:1009E000B80303D5284600F066FA0CE0780302D578
:1009F00044F4004407E0380302D544F4803402E0B4
:100A0000284600F057FA300707D55FEACB6004D5D7
:100A10002968102044F40074C86070074FF008077C
:100A200007D55FEA0B7004D52868C760284600F038
:100A3000A9F9B00706D52868C068800702D0284603
:100A400000F0A2F9700607D55FEACA6004D52968EC
:100A5000102044F480640861B00607D55FEA0A708C
:100A600004D528680761284600F0F0F9F00606D59D
:100A700028680069800702D0284600F0E8F9B00332
:100A800008D55FEAC96005D5296810204860284666
:100A900000F0DEF9F00307D55FEA097004D5286895
:100AA0004760284600F008FA300446D55FEA4970EE
:100AB00040D5F00504D55FEAC87001D044F00104C8
:100AC000B00504D55FEA887001D544F002047005D2
:100AD00004D55FEA487001D544F00404300529D5F7
:100AE00018F0700F26D008F07000402815D006DCF2
:100AF000102809D020280AD0302816D10AE0502822
:100B00000ED0602811D10EE044F008040DE044F04E
:100B100010040AE044F0200407E044F0400404E03C
:100B200044F0800401E044F480742868816921F075
:100B300070018161296804204860002C05D0686A32
:100B4000204368622846FFF789FEBDE8F09F70B534
:100B5000040003D094F8200010B104E0012070BD1F
:100B6000204600F081F82068016841F00101016031
:100B700000F004FB0546052604E000F0FFFA401BE8
:100B80000A2811D820684068C007F6D0206801689C
:100B900021F00201016000F0F1FA05460BE000F0DF
:100BA000EDFA401B0A2806D9606A40F40030606202
:100BB00084F82060D2E7206840688007EFD4207E68
:100BC0000128206801683DD021F080010160607E2D
:100BD00001282068016838D021F040010160A07E22
:100BE00001282068016833D021F020010160E07EF7
:100BF0000128206801682ED041F010010160207F9B
:100C000001282068016829D021F008010160607F77
:100C100001282068016824D021F004010160D4E992
:100C200002010843D4E90412114308436168491ED4
:100C300008432168C86100206062012084F8200018
:100C4000002070BD41F08001C0E741F04001C5E7E0
:100C500041F02001CAE721F01001CFE741F008017F
:100C6000D4E741F00401D9E7F0B587B00446142178
:100C70006846FFF702FC3E4B3E48DFF8F0E019689B
:100C8000D4F800C03B4A032502260927103000246F
:100C9000491CF4452AD11960012907D1016841F0A6
:100CA00000710160006800F000700590106840F06D
:100CB000080010601068CDE9005600F00800CDE98A
:100CC000047069462C48CDE9024500F051F9002234
:100CD0000521142000F0F0FA142000F0DFFA0022C1
:100CE0000521152000F0E8FA15203AE0DFF88CE045
:100CF000F44538D1D0F800C04CF0806CC0F800C08A
:100D0000D0F800C001290CF0806CCDF814C0196037
:100D100007D1016841F000710160006800F00070C7
:100D20000590106840F002001060106802AB00F0FF
:100D3000020005906020CDE9000683E8B000694616
:100D40000F4800F015F900220521402000F0B4FA08
:100D5000402000F0A3FA00220521412000F0ACFA67
:100D6000412000F09BFA07B0F0BD00000064004095
:100D70001400002030380240000C0240006800409F
:100D8000000402407047000030B50546006829495C
:100D9000294C89B0884211D107AB6A460021284608
:100DA000FFF75DFD00982549401EC0B2207000EBA2
:100DB000800001EB800007A901F0E9FB20492868C9
:100DC000884223D107AB6A4600212846FFF747FD3A
:100DD0000098A0F50070053802D0012816D110E067
:100DE000BDF81C0041BA17488180BDF81E1049BAF1
:100DF000C180BDF8201049BA01819DF8221081728E
:100E000004E00E4807A9503001F0C1FB6088401C87
:100E100080B26080B0F5FA7F09D30020608009B00D
:100E20004FF40061BDE83040074800F099B909B0BF
:100E300030BD00000064004028000020980400201D
:100E4000006800408C040020001C0240704770477E
:100E50007047000070B5044690F82000012804D0C7
:100E6000606A40F40020606218E0022084F82000EC
:100E70002068016821F00101016000F07FF905465A
:100E80000EE000BF00F07AF9401B0A2808D9606A1A
:100E900040F400306062052084F82000012070BD1D
:100EA00020684068C007EDD1606270BD7047704730
:100EB000704770477047704770472DE9F04104460E
:100EC000876D00F05BF9064694F83500002502288E
:100ED00006D08020606584F834500120BDE8F081A0
:100EE0002068016821F0160101602068416921F045
:100EF00080014161206C08B9A06C20B120680168B4
:100F000021F0080101602068016821F00101016001
:100F10000CE000F033F9801B052807D9202060651C
:100F2000032084F8350084F83450D7E7206800683F
:100F3000C007EED194F85C103F208840B8600120D3
:100F400084F8350084F834500020C7E790F8351055
:100F5000022903D08021416501207047052180F8D6
:100F600035100068016821F0010101600020704720
:100F70002DE9F84FDFF8BCA10022012503264FF030
:100F80000F090AF1040BAAF1040E00BF0B6805FA61
:100F900002F42340A34270D10F7907F00307012F19
:100FA00001D0022F16D187684FEA420806FA08FCE2
:100FB00027EA0C07D1F80CC00CFA08FC4CEA070C25
:100FC000C0F808C04768A7430C79C4F300149440E4
:100FD0003C4344600C79E443A4070AD0C4684FEA58
:100FE000420C06FA0CF7BC438F6807FA0CF727434C
:100FF000C7600C7904F00304022C12D1D40800EB72
:10100000840CDCF820405707FF0E09FA07F824EAA1
:101010000804D1F8108008FA07F848EA0408CCF868
:10102000208004684FEA420C06FA0CF7BC430F79A3
:1010300007F0030707FA0CF7274307604C6814F41E
:10104000403F70D03C4C276847F4804727602468B5
:1010500022F0030704F480440094384C07EB040C9E
:10106000DCF8084897074FEA177809FA08F7BC43F5
:10107000334FB84202D1002724E054E0314FB84248
:1010800001D101271EE0304FB84201D1022719E0FB
:101090002E4FB84201D1032714E02D4FB84201D1A1
:1010A00004270FE02B4FB84201D105270AE02A4F51
:1010B000B84201D1062705E0284FB84201D10727E1
:1010C00000E0082707FA08F72743CCF80878DAF891
:1010D00000405746D1F804C09C435FEACC2C00D5B1
:1010E0001C433C60DBF800405F46D1F804C09C43E1
:1010F0005FEA8C2C00D51C433C60DEF8004077464C
:10110000D1F804C09C435FEA8C3C00D51C433C6092
:10111000084F083F3C68D1F804C09C435FEACC3CD0
:1011200000D51C433C60521C102AFFF42FAFBDE8D1
:10113000F88F0000083C0140443802400030014074
:10114000000002400004024000080240000C02407F
:10115000001002400014024000180240001C02402F
:10116000426921EA02030A4043EA02418161704771
:101170000AB1816170470904FBE7000001488068FB
:10118000704700001800002002488168027811446E
:1011900081607047180000200B4810B5016841F4C9
:1011A00000710160016841F480610160016841F4EF
:1011B00080710160032000F09FF80F2000F006F816
:1011C00000F050F8002010BD003C024030B505464C
:1011D0001F4887B00024016841F0200101600068C9
:1011E00006A900F02000009001A800F031F9049851
:1011F000A8B100F04DF940001649174AB0FBF1F1D3
:101200001648491E026040F2E732C0E90324C0E9F3
:101210000114846100F0B8FB040003D015E000F075
:1012200037F9E9E70D4800F0DDFB04000DD1372068
:1012300000F034F8102D07D200222946372000F0A4
:101240003BF80748056000E0012407B0204630BDA8
:101250004038024040420F00001400402C0400209F
:101260001C0000200C4882B0016841F480410160FC
:10127000006800F4804000900748001F016841F0BA
:10128000805101600068002200F0805000900F2122
:10129000901E02B000F010B844380240002809DB6C
:1012A00000F01F02012191404009800000F1E02080
:1012B000C0F8001170470000F0B40E4B1B680C46DC
:1012C000C3F30223C3F10705042D00D90425191D1A
:1012D000072901D2002300E0DB1E012606FA05F1F2
:1012E000491E214099409E40761E16403143F0BC75
:1012F00001F03BBE0CED00E0064900F00702086873
:101300004FF6FF03184040EA0220034A10430860EA
:10131000704700000CED00E00000FA052DE9F047F1
:101320000E46050065D0DFF81481D8F80000F7B24A
:1013300000F00700B04207D288F80070D8F800002B
:1013400000F00700B04254D128683D4C810712D507
:10135000400703D5206840F4E0502060287800075B
:1013600003D5206840F4604020602068A96820F020
:10137000F000084320602878C0072DD03049686805
:101380000839012812D0022813D0032811D0096887
:10139000890700292DDA216821F00301014321602A
:1013A000FFF7ECFE814641F2883A0EE009688903B6
:1013B000EFE709688901ECE7FFF7E0FEA0EB090120
:1013C000514502D90320BDE8F0872068696800F024
:1013D0000C00B0EB810FEFD1D8F80010404601F0BF
:1013E0000701B14207D90770006800F00700B0425A
:1013F00001D00120E7E72878400705D52068E96893
:1014000020F4E050084320602878000706D52068C3
:10141000296920F4604040EAC100206000F058F8DB
:101420002168084AC1F30311515CC84006490860AD
:1014300006480068FFF7CAFE0020C4E7003C0240EF
:1014400008380240483C0008240000201C0000200E
:101450000F2202600C4A136803F003034360136811
:1014600003F0F0038360136803F4E053C360126871
:101470004FF4E05303EAD20202610448006800F02E
:10148000070008607047000008380240003C024036
:101490000448054900680968044AC1F38221515C87
:1014A000C84070472400002008380240583C00081B
:1014B0000448054900680968044AC1F34231515C97
:1014C000C84070472400002008380240583C0008FB
:1014D000154810B5006810F00C02144813D01449D8
:1014E000042A0FD0082A0ED10F4C241F226823682B
:1014F00002F03F025B0207D52068C0F38810A0FB12
:10150000010106E0084610BD2168C1F38811A1FB66
:1015100000010023FEF708FF2168C1F30141491CC7
:101520004900B0FBF1F010BD083802400024F4007F
:10153000001BB7002DE9F84F04006ED02078DFF8CB
:101540004C93C007A9F104054AD009F104000168D1
:10155000C1F38101012908D00068C0F3810002288D
:101560000AD1D9F80000400206D52868800337D593
:1015700060680028E1D033E06068B0F5803F10D0AB
:10158000B0F5A02F286810D020F48030286028689B
:1015900020F4802028606068A8B1FFF7EFFD0646C0
:1015A0000DE0286840F48030F4E740F480202860A3
:1015B000F7E700BFFFF7E2FD801B642873D82868B7
:1015C0008003F7D50CE0FFF7D9FD064605E000BF24
:1015D000FFF7D4FD801B6428F0D828688003F7D477
:1015E0002078DFF8AC8280074FF0000A3ED5A7488C
:1015F000001D016811F00C0F08D00068C0F38100D5
:1016000002280BD1D9F80000400207D428688007CF
:1016100016D5E068012800D112E033E1E068B8B1E6
:101620000120C8F80000FFF7A9FD064605E000BF4D
:10163000FFF7A4FD801B0228C0D828688007F7D5D3
:101640002868216920F0F80040EAC10028600DE018
:10165000C8F800A0FFF792FD064604E0FFF78EFDF4
:10166000801B02281FD828688007F7D4207800073D
:1016700022D5864F87486169703771B101210160B9
:10168000FFF77CFD064604E0FFF778FD801B02288B
:1016900009D838688007F7D50EE0C0F800A0FFF73A
:1016A0006DFD064605E082E0FFF768FD801B02281D
:1016B0007DD838688007F7D42078400768D5DFF8F0
:1016C000CCB100270BF13C0BDBF80000C0000BD4C1
:1016D000DBF8001041F08051CBF80010DBF800007F
:1016E000012700F0805000906B4E3068C00510D488
:1016F000306840F480703060FFF740FD009005E0F6
:10170000FFF73CFD0099401A022850D83068C00508
:10171000F6D55E4EA0686C3601280FD005283068DB
:1017200010D020F001003060306820F004003060FC
:10173000A068B8B1FFF722FD00900FE0306840F0DC
:101740000100F4E740F004003060F7E7FFF716FD12
:101750000099411A41F28830814266D8306880078A
:10176000F4D50EE0FFF70AFD009007E0FFF706FD55
:101770000099411A41F28830814256D8306880077A
:10178000F4D42FB1DBF8001021F08051CBF8001019
:10179000A069C8B33D49091D0968C1F38101022947
:1017A0004AD00228504607D0C8F8600000E03CE06C
:1017B000FFF7E4FC04463BE04746C8F86000FFF74B
:1017C000DDFC064605E000BFFFF7D8FC801B0228C1
:1017D0002BD828688001F7D4D4E907010843A16A0F
:1017E0002E4A490802EB0141626A41EA821108432C
:1017F00094F82C1040EA0161C9F800100120386605
:10180000FFF7BCFC044606E03EE000BFFFF7B6FC75
:10181000001B022809D828688001F7D534E000BFF2
:10182000FFF7ACFC001B022802D90320BDE8F88FAB
:1018300028688001F4D427E00128F7D0D9F8000007
:10184000E26900F4800191421CD1226A00F03F015C
:10185000914217D147F6C071626A0140B1EB821F15
:1018600010D1A26A4FF0FF3300F4403103EB520273
:10187000B1EB024F06D194F82C1000F07060B0EB81
:10188000016F01D00120D1E70020CFE704380240EA
:1018900000004742800E4742007000400000FFFFFA
:1018A0007047704710B590F83C20012A22D00122E1
:1018B00080F83C20CA688C6822F4407222434C684D
:1018C00022F4806222430C6822F4006222430C69F5
:1018D00022F4805222434C6922F400522243C96907
:1018E000002322F480420A4301684A6480F83C30B5
:1018F000002010BD022010BD70B590F83C20012AD8
:1019000032D0012480F83C40022280F83D20036858
:101910005A689D6822F070060A6832435A60134B79
:1019200002689A4214D0B2F1804F11D0104B9A4203
:101930000ED0104B9A420BD00F4B9A4208D00F4B4F
:101940009A4205D00E4B9A4202D00E4B9A4204D1D5
:10195000496825F080031943916080F83D400021DB
:1019600080F83C10084670BD022070BD00000140A8
:101970000004004000080040000C0040000401404A
:10198000004001400018004010B5040003D094F856
:101990003D0010B107E0012010BD002084F83C009C
:1019A000204600F01EF8022084F83D00211D20682A
:1019B00000F0E4FF012084F8460084F83E0084F83B
:1019C0003F0084F8400084F8410084F8420084F825
:1019D000430084F8440084F8450084F83D0000206A
:1019E00010BD704790F83D10012901D001207047CB
:1019F000022180F83D100168CA6842F00102CA6005
:101A000000681149884214D0B0F1804F11D00F49BD
:101A100088420ED00E4988420BD00E49884208D029
:101A20000D49884205D00D49884202D00C498842B0
:101A300004D1816801F00701062903D0016841F053
:101A400001010160002070470000014000040040D7
:101A500000080040000C004000040140004001402C
:101A60000018004070472DE9F04104460068C66840
:101A700005694FF00007A90713D5B10711D5F91E65
:101A8000016101202077206880698007204602D00C
:101A9000FFF7E8FF04E000F0A9F8204600F04EF957
:101AA0002777680716D5700714D521686FF00400F2
:101AB0000861022020772068806910F4407F20466A
:101AC00002D0FFF7CFFF04E000F090F8204600F0CE
:101AD00035F92777280715D5300713D521686FF01A
:101AE00008000861042020772068C069800720462C
:101AF00002D0FFF7B7FF04E000F078F8204600F0CE
:101B00001DF92777E80616D5F00614D521686FF081
:101B100010000861082020772068C06910F4407F19
:101B2000204602D0FFF79EFF04E000F05FF8204659
:101B300000F004F92777E80708D0F00706D02168FD
:101B40006FF001000861204600F05EF9280608D514
:101B5000300606D521686FF0800008612046FFF747
:101B60009FFE680608D5700606D521686FF0400014
:101B70000861204600F052F9A8060AD5B00608D53B
:101B800021686FF0200008612046BDE8F041FFF7B2
:101B900088BEBDE8F081000010B586B0044614216F
:101BA0006846FEF76AFC0E492068884216D10D4847
:101BB0000021026842F010020260006800F010008C
:101BC00005904FF4206000900220CDE90101012032
:101BD000CDE9031069460448FFF7CAF906B010BD05
:101BE000000001403038024000100240704770B5DC
:101BF000044690F83C0000260D4601280FD0012035
:101C000084F83C006AB1042A1DD0082A2FD00C2A7F
:101C10003FD00126002084F83C00304670BD0220F1
:101C200070BD206800F024FF2068816941F0080140
:101C300081612068816921F00401816120688169E6
:101C40002A69114311E0206800F042FF2068816991
:101C500041F4006181612068816921F480618161C2
:101C6000206881692A6941EA02218161D2E72068FE
:101C700000F064FF2068C16941F00801C16120687B
:101C8000C16921F00401C1612068C1692A69114359
:101C900011E0206800F086FF2068C16941F400610E
:101CA000C1612068C16921F48061C1612068C16996
:101CB0002A6941EA0221C161ACE710B5040003D0F2
:101CC00094F83D0010B107E0012010BD002084F819
:101CD0003C00204600F01EF8022084F83D00211D43
:101CE000206800F04BFE012084F8460084F83E0096
:101CF00084F83F0084F8400084F8410084F84200F2
:101D000084F8430084F8440084F8450084F83D00DA
:101D1000002010BD08B500680649884208D1064871
:101D2000016841F001010160006800F001000090CD
:101D300008BD000000000140443802407047000028
:101D400010B50446022249B104290ED0082913D047
:101D500094F84100012816D0012010BD94F83E00EF
:101D60000128F9D184F83E200FE094F83F000128C3
:101D7000F2D184F83F2008E094F840000128EBD12C
:101D800084F8402001E084F841200122206800F01E
:101D900061FE16492068164A884201D0904203D15C
:101DA000436C43F4004343642068884213D0B0F18D
:101DB000804F10D00F4988420DD00F4988420AD079
:101DC0000E49884207D0904205D00D49884202D082
:101DD0000C49884204D1816801F00701062903D02B
:101DE000016841F001010160002010BD00000140C8
:101DF000000401400004004000080040000C0040C6
:101E0000004001400018004000680349884201D1A9
:101E1000FFF7BAB9704700000014004070477047E0
:101E200070470000F8B5016804460868CA684B6945
:101E300010F00F0F4FF0000559D003F0010602F427
:101E40009077374365D0C10705D0D10503D5616CC4
:101E500041F001016164410705D5D90703D0616CE8
:101E600041F002016164810705D5D90703D0616C97
:101E700041F004016164010707D502F020013143FC
:101E800003D0616C41F008016164616C00293AD0B3
:101E9000800604D5900602D5204600F0FAFE2068A0
:101EA0004069616CC0F38010090700D460B320461C
:101EB00000F0C8FE20684069400621D52068143033
:101EC00050E8001F21F0400140E80012002AF5D13F
:101ED000E06BA8B16E490165E06BFFF737F80028A9
:101EE00011D0E06B016D01B0BDE8F04008478306FA
:101EF0000FD593060DD52046BDE8F84000F0C9BEC9
:101F00002046FFF78DFFF8BD2046FFF789FF656487
:101F1000F8BD266B2023012E7DD1C6067BD5D606C3
:101F200079D508684868009048694FF00206400675
:101F300041D5E16B086840680004000CE8D0A28D30
:101F40008242E5D9E085C869B0F5807F2DD0206850
:101F50000C3050E8001F21F4807140E80012002A84
:101F6000F5D12068143050E8001F21F0010140E84D
:101F70000012002AF5D12068143050E8001F21F02B
:101F8000400140E80012002AF5D184F84230256370
:101F900020680C3050E8001F21F0100140E80012CA
:101FA000002AF5D1E06BFEF788FF6663A08DE18D16
:101FB000401A81B22AE0A08DE18D401A81B2E08DF5
:101FC0000028A5D00029A3D022680C3252E8000FC7
:101FD00020F4907042E80007002FF5D120681430FB
:101FE00050E8002F22F0010240E80027002FF5D131
:101FF00084F84230256320680C3050E8002F22F02E
:10200000100240E80023002BF5D166632046FFF75D
:1020100006FFF8BDFFE705062BD5150629D594F870
:1020200041002128F5D1A068B0F5805F01D1206979
:10203000B0B1206A411C2162216800784860E08CC0
:10204000401E0004000CE084E3D12068C16821F048
:102050008001C1602068C16841F04001C160D8E7DB
:10206000206A0088C0F308004860206A801C206253
:10207000E5E74006CDD55006CBD5CA68204622F00C
:102080004002CA6084F8413000F00FF9C1E7000057
:10209000352C000870B5040004D094F841000025E8
:1020A00010B106E0012070BD84F84050204600F0D9
:1020B00023F8242084F841002068C16821F40051ED
:1020C000C160204600F046FE2068016921F490417D
:1020D00001612068416921F02A0141612068C168DD
:1020E00041F40051C1606564202084F8410084F807
:1020F00042006563002070BDF0B587B0044614212E
:102100006846FEF7BAF93448324B22680024324957
:102110001438022503269A4233D10A6842F010028D
:102120000A60096801F010010591016841F002019F
:102130000160016801F002010591016841F00101AF
:102140000160006802AA00F0010005908020CDE93E
:102150000005072782E8D00069462048FEF708FFFF
:102160002802CDE9000502AA694682E8D0001C4891
:10217000FEF7FEFE002205212520FFF79DF8252011
:1021800024E0184B9A4223D10A6842F020020A60E8
:10219000096801F020010591016841F040010160EA
:1021A0000068029400F0400005904FF48440CDE9AF
:1021B00000050820CDE9036069460B48FEF7D8FE0C
:1021C000002205214720FFF777F84720FFF766F840
:1021D00007B0F0BD00100140443802400004024046
:1021E00000000240001401400018024090F8423004
:1021F000202B01D00220704721B11AB100230363C4
:1022000000F02EBE0120704770472DE9F8430446C8
:1022100090F84100984616460D46202802D002202C
:10222000BDE8F88385B17EB100206064212084F888
:102230004100FEF7A3FFA6848146E684A06820271C
:10224000B0F5805F02D003E00120E9E7206910B11A
:102250002E4600250EE000260CE08021204600F0EE
:102260001AFEA8B9C6B116F8010B21684860E08CC7
:10227000401EE084E08C4B464FF00002CDF8008019
:102280000028EAD14FF04001204600F004FE40B1A2
:1022900084F841700320C3E735F8020BC0F308004F
:1022A000E3E784F841700020BAE77047FEE70000DA
:1022B000114810B50F4901600321416000214FF022
:1022C0008072C0E902124FF4102202614FF4001232
:1022D00042610176417681760122C27601774177AB
:1022E000FEF735FC002803D0BDE81040FEF7BDB96D
:1022F00010BD00000064004004030020114810B528
:102300000F4901600321416000214FF08072C0E954
:1023100002124FF4102202614FF400124261017662
:10232000417681760122C27601774177FEF70FFC74
:10233000002803D0BDE81040FEF797B910BD00009B
:10234000006800402C03002010B5A4B01C221C49DA
:102350006846FEF760F80021684600F08BFE194CD5
:1023600017491C2220601C3107A8FEF754F80021F1
:1023700007A800F07FFE124960601C2238310EA8C9
:10238000FEF749F800210EA800F074FE0C49A06089
:102390001C22543115A8FEF73EF8002115A800F0C4
:1023A00069FE0749E0601C2270311CA8FEF733F873
:1023B00000211CA800F05EFE206124B010BD0000CA
:1023C000BC3B00080000002070B586B014216846B0
:1023D000FEF753F822480024016841F00201016031
:1023E000016801F002010591016841F040010160BE
:1023F000016801F040010591016841F001010160AF
:10240000016801F001010591016841F008010160D6
:10241000016801F008010591016841F08001016047
:10242000016801F080010591016841F0100101602F
:1024300000680C4E00F010004FF40065059000227B
:1024400029463046FEF794FE01200095CDE90104AF
:10245000694630460394FEF78BFD06B070BD000060
:1024600030380240001C024010B592B000240F9496
:102470001C2168461094FEF700F8202107A8FDF7FC
:10248000FCFF254823490160A721C0E9011444F657
:102490001F61C0E903148021C0E90541FFF70DFC6D
:1024A00008B1FEF7E2F80F940FA91B481094FFF74C
:1024B00023FA08B1FEF7D9F86020CDE900040294B0
:1024C0000394049405940022694613480694FFF788
:1024D0008EFB08B1FEF7C9F8042269460E48FFF7E3
:1024E00086FB08B1FEF7C1F80794089409944FF4ED
:1024F00000500A94CDE90B4007A907480E94FFF756
:10250000D1F908B1FEF7B1F80348FFF745FB12B067
:1025100010BD000000000140540300200C4810B51D
:102520000A4901604FF4E1314160002181600C22D1
:10253000C160C0E904128161C161FFF7ABFD0028F1
:1025400003D0BDE81040FEF790B810BD0010014068
:102550009C0300200C4810B50A4901604FF4E1319A
:102560004160002181600C22C160C0E904128161D8
:10257000C161FFF78FFD002803D0BDE81040FEF7D2
:1025800074B810BD00140140E4030020FEE70A887F
:1025900052BA02804B885BBA43808B885BBA8380D7
:1025A00089798171B0F90810531AC168B3F5805F59
:1025B00001DD491E03E013F5805F01DA491CC160AB
:1025C00002EB4131016101880181002101807047E6
:1025D000FEE700002D4DDFF8B8802E480088002867
:1025E000FBD0DFF8B490DFF8B4A0DFF8B4B000247B
:1025F00004EB840109EB810735F9140097ED040A17
:10260000F8EEC00A00EE100A04EB840000EBC406EA
:10261000B8EEC00A0AEB860000F056FDB7F90200DA
:1026200000EE900A0BEB8600F8EEE00A00F04CFD9D
:10263000BDEEC00A10EE100A28F81400641C032C2A
:10264000D6DD184CA08800EE100A1748F8EE400AB4
:10265000B0F9000035F9100000EE100A1348B8EE8A
:10266000C00A00F031FDB4F9060000EE900A1048EF
:10267000F8EEE00A00F028FDBDEEC00A10EE100AE8
:10268000A8F80A00022000F0E9FCA6E78004002078
:10269000740400203A0000209804002068060020FE
:1026A000640500208C0400202C0000203005002050
:1026B000FC04002000B5DFED571AB0EE001AF7EE6B
:1026C000000AB0EE612A9FED543A5448B0EE430A36
:1026D00000F04DFD9FED524AF0EE431AB0EE442A51
:1026E000DFED502AB6EE000A4F48B0EE621AF0EE67
:1026F000620A00F03CFDDFED4D3AB0EE621AF0EEFA
:10270000620AB0EE632AF0EE631AB7EE000A484898
:1027100000F02DFDB0EE442AF0EE431AB0EE621A3E
:10272000F0EE620AB7EE000A424800F020FD404891
:10273000B0EE632AF0EE631AB0EE621AF0EE620AAF
:10274000B7EE000A343000F012FD3A48B0EE442AE9
:10275000F0EE431AB0EE621AF0EE620AB7EE000A2B
:10276000343000F004FD3248B0EE632AF0EE631A14
:10277000B0EE621AF0EE620AB7EE000A683000F0BE
:10278000F6FC2C48B0EE442AF0EE431AB0EE621A82
:10279000F0EE620AB7EE000A683000F0E8FC244868
:1027A000B0EE632AF0EE631AB0EE621AF0EE620A3F
:1027B000B7EE000A9C3000F0DAFC1E48B0EE442A66
:1027C000F0EE431AB0EE621AF0EE620AB7EE000ABB
:1027D0009C3000F0CCFC1648B0EE632AF0EE631A91
:1027E000B0EE621AF0EE620AB7EE000AD03000F0E6
:1027F000BEFC1048B0EE442AF0EE431AB0EE621A66
:10280000F0EE620AB7EE000AD0305DF804EB00F09B
:10281000AEBC00000060EA4600009643FC040020C5
:102820000000FA45000000003005002000401C4672
:10283000640500206806002010B500210448FFF759
:102840007FFABDE8104004210148FFF779BA000083
:10285000540300200D484FF47A71008810FB01F0FA
:10286000B42190FBF1F00A4A00F2DC50136858637F
:1028700008484FF47A73008810FB03F090FBF1F0E6
:10288000116800F2DC508863704700002E000020C1
:102890005403002030000020012000F0DFFBFBE7A4
:1028A00010B5502080F31188BFF34F8FBFF36F8FA7
:1028B00001F0B6F818B104494FF0805008600020CC
:1028C00080F3118810BD000004ED00E030B593B036
:1028D00030216846FDF7D1FD14210CA8FDF7CDFD90
:1028E0001D480025016841F080510160006800F03A
:1028F000805011901948016841F4804101600068DE
:10290000022400F480401190012000900004019006
:102910008001CDE9064006200890A820CDE90904F1
:1029200004200B906846FEF705FE08B172B6FEE77C
:102930000CA90F2081E831004FF4A0500F904FF404
:102940008050109005210CA8FEF7E8FC002801D06B
:1029500072B6FEE713B030BD403802400070004050
:102960000248016841F470010160704788ED00E0A1
:102970000148FFF778B800002C040020F0B5026889
:10298000294C2A4D2A4E2B4F2B4B4FF0804CA04206
:1029900009D0604507D0A84205D0B04203D0B84264
:1029A00001D0984204D122F0700E4A6842EA0E0229
:1029B000A0421BD0604519D0A84217D0B04215D014
:1029C000B84213D0984211D01C4DA8420ED01C4DD5
:1029D000A8420BD01B4DA84208D01B4DA84205D0E1
:1029E0001A4DA84202D01A4DA84203D122F44075D4
:1029F000CA682A434D6922F080022A4302608A682D
:102A0000C2620A688262A04201D0984201D109697B
:102A10000163012141610169C90703D0016921F006
:102A200001010161F0BD0000000001400004004010
:102A300000080040000C004000040140004001403C
:102A4000004401400048014000180040001C0040C4
:102A50000020004010B501F01F030121046A9940D5
:102A60008C430462016A9A401143016210BD000068
:102A7000F0B5036A026A22F00102026242688469C8
:102A8000124E24F073050C682C4323F002058B686A
:102A90002B430D4DA84201D0B04205D123F00807C9
:102AA000CB683B4323F00403A84201D0B04205D1D8
:102AB0004D6922F4407215438A692A434260846159
:102AC000496841630362F0BD000001400004014019
:102AD000F0B5026A036A23F0100303624368846955
:102AE0000D6824F4E64444EA05248D6822F02002AF
:102AF00042EA05120F4D104EA84201D0B04206D155
:102B0000CF6822F0800242EA071222F04002A84277
:102B100001D0B04207D14D6923F4406343EA8503F5
:102B20008D6943EA85034360846149688163026279
:102B3000F0BD00000000014000040140F0B5026A51
:102B4000036A23F4807303624368C46922F4007249
:102B500024F073050C68124E2C438D6842EA05225E
:102B60000E4DA84201D0B04206D1CF6822F40062D7
:102B700042EA072222F48062A84201D0B04207D183
:102B80004D6923F4405343EA05138D6943EA051365
:102B90004360C4614968C1630262F0BD0000014046
:102BA0000004014030B5046A026A22F480520262D5
:102BB0004268C3690D6823F4E64343EA05238D6840
:102BC00024F4005444EA0534084DA84202D0084DCC
:102BD000A84204D14D6922F4804242EA8512426043
:102BE000C36149680164046230BD00000000014017
:102BF00000040140034800210288002AFCD0018023
:102C0000FAE700003C000020074D4FF47A74288852
:102C100028B12346042205490548FFF7F6FA0120AA
:102C200000F01CFAF3E700003E0000204400002002
:102C3000E403002010B5806B0021C185C184FFF73B
:102C4000EFF810BD01680C3151E8002F22F49072AA
:102C500041E80023002BF5D10168143151E8002F21
:102C600022F0010241E80023002BF5D1016B01297C
:102C700009D101680C3151E8002F22F0100241E81F
:102C80000023002BF5D1202180F8421000210163A0
:102C9000704708B590F84210222901D0022008BDE3
:102CA00082684FF480539A4201D1016921B1816A4F
:102CB0009A421BD04AB10AE00268816A5268C2F3A4
:102CC00008020A80816A891C08E0026972B1026800
:102CD000526802F07F020A70816A491C8162C18DCC
:102CE000491E0904090CC18503D01BE00268526823
:102CF000F1E70168CA6822F02002CA600168CA6868
:102D000022F48072CA6001684A6922F001024A61B5
:102D1000202180F8421000214163026B012A03D078
:102D2000FFF772FA002008BD016301680C3151E819
:102D3000002F22F0100241E80023002BF5D101689A
:102D40000A68D20602D50A6849680091818DFFF7AA
:102D500066F8E7E770B5044600680169E26821F4A7
:102D60004051114301612169A068E269084361692A
:102D7000114308432168CA6849F20C639A4302432D
:102D8000CA6020684169A26921F440711143416120
:102D900031492068884202D03049884202D1FEF78A
:102DA00087FB01E0FEF774FBE2690023192164252B
:102DB0003226B2F5004F626828D0A0FB0101930FC4
:102DC0009200FDF7B1FA0146B0FBF5F06FF0180282
:102DD000504301EB800006EB0010B0FBF5F000F073
:102DE000F002B1FBF5F002EB0012B1FBF5F06FF071
:102DF0001803584301EB800006EB0010B0FBF5F020
:102E000000F00F0021681044886070BDA0FB010134
:102E100092185B41FDF788FA0146B0FBF5F002011C
:102E2000B1FBF5F06FF01803584301EB800006EB9F
:102E3000C000B0FBF5F000F0F80002EB4002B1FB7F
:102E4000F5F0584301EB800006EBC000B0FBF5F055
:102E500000F00700D6E70000001001400014014018
:102E600081628285C28500214164222180F842105E
:102E7000016921B10168CA6842F48072CA600168C0
:102E80004A6942F001024A610068C16841F02001CC
:102E9000C160002070472DE9F843984617460D465B
:102EA0000446089E24E0701C22D0FEF767F9A0EBD0
:102EB0000800B0421AD8CEB12068C168490717D5BA
:102EC000802D15D0402D13D00168C94309070FD4B8
:102ED00001680025406800902046FFF7B3FE0820F7
:102EE000606484F840500120BDE8F8830320FBE7CC
:102EF0002068006835EA000004D00020B842D2D033
:102F00000020F1E70120F9E770B512480068006879
:102F1000800604D5042210490E48FFF767F9002007
:102F2000012302240C4903250A5C312A04D0322AE9
:102F300004D0332A04D004E00B5402E00C5400E027
:102F40000D54401C0228EFDDBDE870400148FEF73B
:102F500069BF00009C030020400000200148FEF7EC
:102F600061BF0000E4030020FEE70907090E002806
:102F700004DB00F1E02080F80014704700F00F003F
:102F800000F1E02080F8141D7047000000B58BB000
:102F900000200121CDE906010891009001900290E6
:102FA00003900590049069460C48FDF7D1FB0B484F
:102FB000FDF750FF02210948FDF759FB0E2009904B
:102FC000059069460648FDF7C3FB0548FDF742FF3B
:102FD00002210348FDF74BFB0BB000BD04030020AA
:102FE0002C030020FEF7D8F8FFF770FCFFF7ECF990
:102FF000FFF75EF9FFF738FAFFF780F9FFF78EFA6F
:10300000FFF7A8FA0122D1020D48FEF7B1F8FFF749
:10301000BDFFFFF74FFBFFF70FFC0A498C2008802C
:1030200009496FF09F00088008480068C16841F0B6
:103030002001C160FFF788F900F017F8FEE70000F3
:10304000001C0240300000202E0000209C030020C5
:1030500001460020842900D0C81C704710B500B973
:10306000012000F079FB002010BD10B500F09AFBA4
:10307000002010BD7FB50D4604464169B0F9080037
:1030800081B1A16971B1FFF7E3FFD4E905128DE8C1
:103090000700D4E900102B46226900F096FC03904B
:1030A00004B070BDFFF7D4FF03A9CDE90001208A69
:1030B0002B4682B2D4E9001000F05AFC012801D05E
:1030C0000020EDE70398EBE780ED050AC0ED060A66
:1030D00090ED071A70EE600A80ED081AC0ED070A3D
:1030E00090ED000A60EE201AC0ED091A90ED0A0A70
:1030F00090ED012A02EE200A70EEC10A80ED0A0A64
:1031000090ED021A20EE812A80ED0B2AD0ED030A01
:10311000B1EE601AB4EEC10AF1EE10FA02D8B0EEC8
:10312000410A06E0B4EEE00AF1EE10FA01DBB0EE7F
:10313000600A80ED0A0A31EE800A30EE020A80ED64
:103140000C0AD0ED040AB1EE601AB4EEC10AF1EE39
:1031500010FA02D8B0EE410A06E0B4EEE00AF1EE51
:1031600010FA01DBB0EE600A80ED0C0A704780ECCB
:10317000050A70472DE9F041184C0F460546E668F0
:103180002068001D00F020FA38B9206890F82C1053
:1031900001208840216981432161681C07D137B132
:1031A0002168BDE8F0410E48091D00F051BA2068C1
:1031B0003544B5424560216805D2A06BBDE8F041B9
:1031C000091D00F02DBA606B091D00F029FAA06AF4
:1031D000854200D2A562BDE8F081000048000020D1
:1031E000480800202DE9F041054600F03DFA2E4C3C
:1031F000A068401CA06020682C4F10B1606940B3EB
:103200002DE02560A068012829D1002606EB860064
:1032100007EB800000F0F6F9761C072EF6D3234862
:103220008C3000F0EFF92148A03000F0EBF91F4896
:10323000B43000F0E7F91D48C83000F0E3F91B484E
:10324000DC3000F0DFF919488C3060631430A06383
:1032500005E02068E96AC06A884200D82560606A93
:10326000401C6062E96A01202269884010432061A5
:1032700001EB810007EB8000291D00F0E9F900F067
:1032800013FA606900280CD02068E96AC06A884295
:1032900007D207494FF080500860BFF34F8FBFF34C
:1032A0006F8FBDE8F0810000480000206C0700200F
:1032B00004ED00E010B5044690F8510058B1012823
:1032C0000CD002280FD0502080F31188BFF34F8F0D
:1032D000BFF36F8FFEE7206B00F0FAF92046BDE8E0
:1032E000104000F0F5B910BD10484FF4705142077E
:1032F00006D0C01D0D4920F00700411AC1F57051DC
:103300000B4A00230144C2E900030839183A21F0AE
:10331000070111604B600B600B1AC0E9001393604A
:103320004FF0004053605061704700005C0800207F
:103330009C000020144E154CA6F1C8074FF0805891
:10334000DFF84C9012E000BF00F08EF9F068C5681D
:10335000281D00F039F9A068401EA0606068401E7A
:10336000606000F0A1F92846FFF7A4FF606800281C
:10337000EAD138680128F9D9C9F80080BFF34F8F26
:10338000BFF36F8FF2E700003408002048000020F0
:1033900004ED00E02DE9F0479A46DDE90984814615
:1033A0006FF00303206B03EB82021044089E20F0B1
:1033B0000707780707D0502080F31188BFF34F8F9D
:1033C000BFF36F8FFEE7002561B1002023180A5C70
:1033D00083F834200A5C12B1401C1028F6D384F81C
:1033E000435001E084F83450072E00D30626E662ED
:1033F000C4E91165201D00F010F904F1180000F077
:103400000CF92461C6F107006462A061E56484F8E8
:10341000505052464946384600F0C0F82060B8F196
:10342000000F01D0C8F80040BDE8F08730B5114961
:1034300000E011460A688242FBD34B685C18844264
:1034400003D1406818444860084643681C189442F9
:1034500009D1084C183C2468A24209D052681A4489
:1034600042600A6812680260814200D0086030BD84
:103470000460F9E79C0000200648416B096829B107
:10348000416BC968C9684968816270474FF0FF3174
:10349000FAE700004800002008484068401C4FF050
:1034A000500080F3118804D0BFF34F8FBFF36F8FAC
:1034B000FEE7BFF34F8FBFF36F8FFEE7A40000203E
:1034C0002DE9F0410546002700F0A2F9324E3068A0
:1034D00008B9FFF709FF706905424ED1C5B3083539
:1034E00068070ED005F00700C0F108000544680722
:1034F00007D0502080F31188BFF34F8FBFF36F8F39
:10350000FEE72DB37068854237D82348183001464E
:103510000C6801E020460C466168A94202D221688D
:103520000029F7D131688C4227D0076821680160F3
:1035300060680837411B10290FD96019420708D06D
:10354000502080F31188BFF34F8FBFF36F8FFEE7DA
:1035500013E041606560FFF769FF61687068401AB9
:103560007060B268904200D2B06070690143002080
:10357000C4E90001F068401CF06000F0B7FA780779
:1035800007D0502080F31188BFF34F8FBFF36F8FA8
:10359000FEE73846BDE8F0818400002010B5031F27
:1035A0004FF080741C601B1F21F001011960191F6E
:1035B000044B0B6014390A60091F6FF00202443893
:1035C0000A6010BD99340008D0E9013201699A609F
:1035D000D0E901235A604A68824201D182684A6078
:1035E000002202610868401E0860086870470000F9
:1035F000034B036003F154000860802010607047A3
:10360000B000002000F108014FF0FF32C0E90112C4
:10361000C1600161002101607047002101617047B4
:1036200030B50B685A1C02D000F1080202E00269B2
:1036300004E02246546825689D42FAD953684B60DD
:1036400099608A60516008610168491C016030BD61
:1036500042684A6093688B60936859609160086122
:103660000168491C01607047502080F31188BFF346
:103670004F8FBFF36F8F0A494868401C486001288C
:103680000CD10848006810F0FF0F07D0502080F3DD
:103690001188BFF34F8FBFF36F8FFEE770470000B5
:1036A000A400002004ED00E00849486828B1401E4D
:1036B000486001D180F311887047502080F3118851
:1036C000BFF34F8FBFF36F8FFEE70000A400002011
:1036D00070B500282AD0164DA0F108046068696909
:1036E000084207D1502080F31188BFF34F8FBFF3FA
:1036F0006F8FFEE722683AB1502080F31188BFF344
:103700004F8FBFF36F8FFEE78843606000F080F853
:1037100060686968084468602046FFF787FE28698A
:10372000401C2861BDE8704000F0E0B970BD0000A9
:10373000840000204FF0E0200021016181610549F3
:103740004FF47A720968B1FBF2F1491E4161072119
:10375000016170472400002010B5020014D00F480A
:10376000006B38B1502080F31188BFF34F8FBFF347
:103770006F8FFEE700F04CF800211046FFF7FAFCCF
:1037800000F0B4F9002807D105494FF080500860D7
:10379000BFF34F8FBFF36F8F10BD000048000020B4
:1037A00004ED00E010B586B00024039405AA04A936
:1037B00003A80494FFF71CFFDDE903010094CDE9A1
:1037C000011000230EA11048059A00F0FEF80F49E1
:1037D0000028C86211D0502080F31188BFF34F8FAA
:1037E000BFF36F8F4FF0FF30886201204861CC60DB
:1037F00006B0BDE8104000F041B806B010BD0000B2
:1038000049444C45000000003533000848000020C2
:103810000248016B491C016370470000480000200A
:103820001448016B11B10121C16170470021C161D0
:103830000169B1FA81F1C1F11F0101EB81020E4969
:1038400051F822306BB101EB820101F108034A68A3
:1038500052684A609A4201D152684A60D168016058
:103860007047502080F31188BFF34F8FBFF36F8FE5
:10387000FEE70000480000206C0700201CB5374818
:103880000168374A914207D1502080F31188BFF375
:103890004F8FBFF36F8FFEE700683149491E8842A2
:1038A00007D1502080F31188BFF34F8FBFF36F8F84
:1038B000FEE72C4908780190FF20087008788DF801
:1038C00000009DF800009DF8002000F0F0009042FC
:1038D00007D0502080F31188BFF34F8FBFF36F8F55
:1038E000FEE79DF80000204C00F0500020700720FB
:1038F000A06005E09DF8002052008DF80020401ED9
:103900009DF800201206F5D4A060032807D05020AF
:1039100080F31188BFF34F8FBFF36F8FFEE74FF433
:103920004070A060019808700C482030016841F494
:1039300070010160016841F070410160FFF7FAFE1B
:1039400000206060FCF794FC0848016841F04041A9
:103950000160FCF779FC00201CBD000000ED00E0D8
:1039600071C20F4100E400E0A400002034EF00E049
:103970002DE9FF5F8346DDE90E87994616468A46A4
:103980009000FFF79DFD05001CD05420FFF798FD27
:10399000040014D00020256384F85100CDE90240D2
:1039A000CDE900874B46324651465846FFF7F2FCB8
:1039B0002046FFF717FC012004B0BDE8F09F284621
:1039C000FFF786FE4FF0FF30F6E7F0B585B0DDE992
:1039D0000B640A9DA6B1DCB154270097266302262A
:1039E00084F85160002604AFCDE90246CDE90057C6
:1039F000FFF7D0FC2046FFF7F5FB049805B0F0BDBB
:103A0000502080F31188BFF34F8FBFF36F8FFEE715
:103A1000502080F31188BFF34F8FBFF36F8FFEE705
:103A20002DE9F0412F4C0026206B28B1A069401CE5
:103A3000A0613046BDE8F081E5686D1CE56013D1FA
:103A4000606B006838B1502080F31188BFF34F8F4E
:103A5000BFF36F8FFEE7606BA16B6163A063206AA9
:103A6000401C2062FFF708FDA06ADFF87C808542D9
:103A700009D3606B0068A0B1606BC068C7687868E4
:103A8000854211D2A0622068C06A00EB800158F81C
:103A90002100012800D90126E0690028C9D00126AB
:103AA000C7E74FF0FF30EDE7381DFFF78DFDB86A2F
:103AB00018B107F11800FFF787FDF96A01202269A4
:103AC00088401043206101EB810108EB8100391D22
:103AD000FFF7BEFDF86A2168C96A8842C9D301268A
:103AE000C7E70000480000206C0700202DE9F047E0
:103AF0002C4D00242746286B38B1FFF7B5FD286B05
:103B0000401E2863286B40B146E0502080F31188A6
:103B1000BFF34F8FBFF36F8FFEE7A968224E0120DE
:103B2000D1B3A6F1B40980463068E8B1F068C46842
:103B300004F11800FFF748FD201DFFF745FDE06A7E
:103B40002A6908FA00F11143296100EB800109EBB1
:103B50008100211DFFF77CFDE06A2968C96A88425F
:103B6000E2D3C5F81C80DFE70CB1FFF785FCAC6938
:103B700044B14646FFF754FF00B1EE61641EF9D12F
:103B80000020A861E86938B10849012738070860B2
:103B9000BFF34F8FBFF36F8FFFF786FD3846BDE849
:103BA000F0870000480000202008002004ED00E01D
:103BB0004FF04070E1EE100A704700006C3C0008C6
:103BC00099280008000000000000000080000000AC
:103BD0000000000000000000843C0008F52B0008F5
:103BE00000000000000000000001000000000000D4
:103BF00000000000603C00081506000800000000FE
:103C000000000000000100000000000000000000B3
:103C1000683C0008D52500080000000000000000F6
:103C2000800000000000000000000000783C000858
:103C3000092C000800000000000000000001000046
:103C40000000000000000000000000000000000074
:103C50000102030406070809000000000102030432
:103C600063686173736963007069640064656661A9
:103C7000756C745461736B007472616E736D6974EA
:103C8000000000005465737400000000AC3C0008A4
:103C900000000020B0000000C40100085C3D0008E6
:103CA000B0000020104A0000E00100080000000001
:103CB0000000000000000000000000000000000004
:103CC00000000000010000001000000000000000E3
:103CD0000024F400000000000000000000000000CC
:103CE00000000000000000000000000000000000D4
:103CF00000000000000000000000000000000000C4
:103D000000000000000000000000000000000000B3
:103D100000000000000000000000000000000000A3
:103D20000000000000000000000000000000000093
:103D30000000000000000000000000000000000083
:103D40000000000000000000000000000000000073
:0C3D500000000000AAAAAAAA00000000BF
:040000050800018965
:00000001FF
