:020000040800F2
:10000000D8490020E9020008D71E0008AB1C0008F0
:10001000951E000843050008AD24000800000000FC
:10002000000000000000000000000000290200089D
:100030002D06000800000000850200082D210008A0
:100040000303000803030008030300080303000878
:100050000303000803030008030300080303000868
:100060000303000803030008030300080303000858
:100070000303000803030008030300080303000848
:100080000303000803030008030300080303000838
:1000900045050008030300080303000803030008E4
:1000A0000303000803030008030300080303000818
:1000B0000303000803030008030300080303000808
:1000C00003030008030300080303000803030008F8
:1000D00003030008030300080303000803030008E8
:1000E00003030008030300080303000803030008D8
:1000F00003030008030300080303000803030008C8
:1001000003030008030300080303000803030008B7
:10011000030300080303000803030008FD2100088F
:100120000303000803030008030300080303000897
:100130000303000803030008030300080303000887
:100140000303000803030008030300080303000877
:100150000303000803030008030300080303000867
:100160000303000803030008030300080303000857
:100170000303000803030008030300080000000055
:10018000030300080303000800F002F800F03CF845
:100190000AA090E8000C82448344AAF10107DA45E2
:1001A00001D100F031F8AFF2090EBAE80F0013F0F8
:1001B000010F18BFFB1A43F001031847603200001B
:1001C00080320000103A24BF78C878C1FAD85207AC
:1001D00024BF30C830C144BF04680C6070470000C1
:1001E0000023002400250026103A28BF78C1FBD840
:1001F000520728BF30C148BF0B6070471FB503F0DE
:10020000AFF81FBD10B510BD00F061F91146FFF742
:10021000F5FF02F087F900F07FF903B4FFF7F2FF72
:1002200003BC00F087F900002C4B19680868B0E89F
:10023000F04F80F30988BFF36F8F4FF0000080F319
:10024000118870470000000008480068006880F3CB
:1002500008884FF0000080F3148862B661B6BFF3DF
:100260004F8FBFF36F8F00DF00BF00BF08ED00E0CE
:10027000DFF80C00016841F470010160704700BFB5
:1002800088ED00E0EFF30980BFF36F8F134B1A681E
:100290001EF0100F08BF20ED108A20E9F04F10600B
:1002A00009B44FF0500080F31188BFF34F8FBFF3B4
:1002B0006F8F02F047FD4FF0000080F3118809BCFA
:1002C00019680868B0E8F04F1EF0100F08BFB0ECD6
:1002D000108A80F30988BFF36F8F704730000020C9
:1002E000EFF3058070470000094880470948004740
:1002F000FEE7FEE7FEE7FEE7FEE7FEE7FEE7FEE7D6
:10030000FEE7FEE704480549054A064B7047000032
:10031000ED21000889010008D8430020D8490020B9
:10032000D8450020D845002053EA020C00F069802F
:100330002DE9F04B4FF00006002B1FBFB3FA83F5F9
:1003400003FA05F424FA05F65E4012BF1643B2FA2A
:1003500082F502FA05F4C5F120051EBF22FA05FC5C
:1003600044EA0C04203556EA044C4FEA144418BF02
:10037000641C4FF000084FF00009904271EB030C31
:1003800039D3002919BFB1FA81F701FA07F6B0FA9B
:1003900080F700FA07F6C7F120071EBF20FA07FC16
:1003A00046EA0C062037B6FBF4FCA7EB0507103F26
:1003B00007F01F0BCBF120060CFA0BFB2CFA06F60C
:1003C00044BFB3460026202FA4BF5E464FF0000B6B
:1003D0005BEA060C08BF4FF0010B19EB0B09ABFBF6
:1003E000027C48EB0608C01B06FB02CC0BFB03CCCF
:1003F00071EB0C01C1E70B46024641464846BDE899
:10040000F08B13B54FF000004FF00001AFF3008008
:10041000BDE81C40704710B5203AC0F00B80B1E831
:100420001850203AA0E81850B1E81850A0E8185029
:10043000BFF4F5AF5FEA027C24BFB1E81850A0E832
:10044000185044BF18C918C0BDE810405FEA827C4C
:1004500024BF51F8043B40F8043B08BF7047D20763
:1004600028BF31F8023B48BF11F8012B28BF20F804
:10047000023B48BF00F8012B70474FF0000200B567
:10048000134694469646203922BFA0E80C50A0E8B7
:100490000C50B1F12001BFF4F7AF090728BFA0E865
:1004A0000C5048BF0CC05DF804EB890028BF40F831
:1004B000042B08BF704748BF20F8022B11F0804F73
:1004C00018BF00F8012B704770477047704775469A
:1004D00000F02CF8AE4605006946534620F00700B0
:1004E000854618B020B5FFF70DFFBDE820404FF05E
:1004F00000064FF000074FF000084FF0000B21F00E
:100500000701AC46ACE8C009ACE8C009ACE8C009DA
:10051000ACE8C0098D46704710B50446AFF30080C3
:100520002046BDE81040FFF778BE00000048704745
:100530007443002001491820ABBEFEE726000200EC
:100540007047FEE7014800F0E6B90000EC02002029
:1005500010B58AB04FF400740294002404940594FA
:1005600008240694040A8DF800408DF80100080A5A
:100570008DF80200100A8DF804008DF80520180A85
:100580008DF806008DF803108DF8073008AB6A4629
:1005900002A9024800F05FF80AB010BDEC0200208A
:1005A00010B58AB040F2FF1402940024049405941C
:1005B00008240694040A8DF800408DF80100080A0A
:1005C0008DF80200100A8DF804008DF80520180A35
:1005D0008DF806008DF803108DF8073008AB6A46D9
:1005E00002A9024800F037F80AB010BDEC02002062
:1005F0000C4C0D4DB4F94030B4F92C20B4F918105E
:10060000B4F90400FFF7A4FF0023B4F95410B5F9BE
:1006100002001A46FFF7C4FF01F062FD012001F05D
:10062000AFFFE7E7A403002008040020704772B67C
:10063000FEE790F82020012A07D0022A05D0416A5F
:1006400041F48021416201207047006842690A43F9
:10065000426100207047F0B590F820500468A4680B
:10066000012D05D0022D03D0416A41F480214DE0D7
:1006700014F0406F01D1E50045D5C4F301640125B4
:10068000A5401D608D684FF4C0739DB1CE683543A1
:100690004E6845EAC605066803EB0417F5514FF4AA
:1006A000C275076805EB04150E697E51097D0129A5
:1006B00005D009E00E88CD6845EA4655EBE70168AC
:1006C0004E5946F480764E511179D2F805504FF4C8
:1006D000C67641EA0521056806EB0416A951117892
:1006E000D2F801204FF4C47541EA0221026805EBFB
:1006F00004155151006803EB0411425842F0010205
:1007000042500020F0BD416A41F4001141620120D5
:10071000F0BD000010B590F82020012A07D0022A71
:1007200005D0416A41F480214162012010BD3B485F
:10073000D0F8002242F00102C0F80022D0F80022D6
:1007400022F47C52C0F80022D0F800224B6A42EA20
:100750000322C0F800220A7D02F01F0301229A4002
:10076000D0F81C329343C0F81C32CB69B3B9D0F82F
:100770000C329343C0F80C328C894B6864F31F43EE
:100780004C6900EBC404C4F840320C890B6864F374
:100790001F434C6900EBC404C4F84432CB69012BFD
:1007A00016D1D0F80C321343C0F80C320C884B68C9
:1007B00064F31F434C6900EBC404C4F840320C8955
:1007C000CB6864F31F434C6900EBC404C4F84432A3
:1007D0008B69002BD0F804320ED01343C0F80432DA
:1007E0000B69002BD0F8143208D01343C0F8143230
:1007F000096A012904D008E09343EFE79343F5E742
:10080000D0F81C121143C0F81C12D0F8001221F0CD
:100810000101C0F80012002010BD0000006400407B
:10082000704770B590F82040012C05D0022C03D001
:10083000416A41F4802128E0046809B32469A407CF
:1008400020D04FF4D874056804EB01142D5915F02D
:100850000405956005682D591AD0ED0855600568A6
:100860002C5904F00204D4604FF4DA74056804EBE8
:1008700001142E5906F00F06082E0CD308250DE0A2
:10088000E468DCE7416A41F400114162012070BD77
:100890006D0D1560E3E72D5905F00F05156105682D
:1008A0002D59C5F30725956105682C59240C546111
:1008B0004FF4DC72046802EB0112A4581C70046847
:1008C000A458240A5C700468A458240C9C70046822
:1008D000A258120EDA704FF4DE72046802EB0112B5
:1008E000A4581C710468A458240A5C710468A458B4
:1008F000240C9C710468A258120EDA71006829B1A8
:10090000016941F020010161002070BDC16841F022
:100910002001C160F8E72DE9F05F0546006800247A
:100920004669D0F804908768D0F80CB0D0F810A0D1
:10093000D0F81880F10748D0F90714D00121816060
:10094000B80703D5284600F062FA0CE0780702D514
:100950004FF4006407E0380702D54FF4805402E0FA
:10096000284600F053FAF80516D529684FF4807030
:100970008860B80503D5284600F04BFA0CE07805EE
:1009800002D544F4005407E0380502D544F480440D
:1009900002E0284600F03CFAF80316D529684FF427
:1009A00080308860B80303D5284600F034FA0CE0A4
:1009B000780302D544F4004407E0380302D544F438
:1009C000803402E0284600F025FA300707D55FEAB8
:1009D000CB6004D52968102044F40074C860700707
:1009E0004FF0080707D55FEA0B7004D52868C76089
:1009F000284600F057F9B00706D52868C068800778
:100A000002D0284600F050F9700607D55FEACA60A8
:100A100004D52968102044F480640861B00607D525
:100A20005FEA0A7004D528680761284600F0BEF91D
:100A3000F00606D528680069800702D0284600F035
:100A4000B6F9B00308D55FEAC96005D5296810205A
:100A50004860284600F0ACF9F00307D55FEA09705A
:100A600004D528684760284600F0D6F9300446D5FA
:100A70005FEA497040D5F00504D55FEAC87001D03F
:100A800044F00104B00504D55FEA887001D544F054
:100A90000204700504D55FEA487001D544F00404EF
:100AA000300529D518F0700F26D008F070004028C6
:100AB00015D006DC102809D020280AD0302816D1FD
:100AC0000AE050280ED0602811D10EE044F008044E
:100AD0000DE044F010040AE044F0200407E044F084
:100AE000400404E044F0800401E044F48074286889
:100AF000816921F070018161296804204860002C1F
:100B000005D0686A204368622846FFF789FEBDE881
:100B1000F09F70B5040003D094F8200010B104E0F9
:100B2000012070BD204600F081F82068016841F086
:100B30000101016000F078FA0546052604E000F0A6
:100B400073FA401B0A2811D820684068C007F6D005
:100B50002068016821F00201016000F065FA054695
:100B60000BE000F061FA401B0A2806D9606A40F4E5
:100B70000030606284F82060D2E720684068800717
:100B8000EFD4207E0128206801683DD021F080014B
:100B90000160607E01282068016838D021F04001A2
:100BA0000160A07E01282068016833D021F0200177
:100BB0000160E07E0128206801682ED041F010011C
:100BC0000160207F01282068016829D021F00801F8
:100BD0000160607F01282068016824D021F00401B1
:100BE0000160D4E902010843D4E904121143084327
:100BF0006168491E08432168C861002060620120C5
:100C000084F82000002070BD41F08001C0E741F071
:100C10004001C5E741F02001CAE721F01001CFE70C
:100C200041F00801D4E741F00401D9E710B586B0DE
:100C3000044614216846FFF720FC174920688842C3
:100C400027D116480021026842F000720260006855
:100C500000F00070059011481038026842F0080258
:100C600002600068022200F0080005900320CDE930
:100C70000210CDE90002092004906946084800F0FE
:100C8000CDF800220521142000F06CFA142000F0A9
:100C90005BFA06B010BD000000640040403802401E
:100CA000000C02407047000030B587B00446394B55
:100CB0006A460021FFF7B5FD3748844268D10098A5
:100CC000A0F5007105390CD1324801884ABA334980
:100CD0008A80428852BACA80828852BA0A81807950
:100CE000887200982E4C0025A0F5007106390AD1B3
:100CF000284904F1500001F0CEF82566A4F85850B8
:100D0000A4F85A50E5650098B0F5017F0AD124484F
:100D100020493C3001F0BFF8E564A4F84450A4F841
:100D20004650A5640098A0F50071033908D11C480D
:100D30001849283001F0AFF8A563258665866563FC
:100D40000098A0F50071023908D1154811491430F6
:100D500001F0A1F86562A583E58325620098A0F5FE
:100D60000071013907D10B490D4801F094F8256154
:100D700025816581E5600B4C2088401C80B2208075
:100D8000322805D34FF40061074800F03FF9258071
:100D900007B030BD28000020EC020020080400202D
:100DA000A403002020000020001C02407047704770
:100DB0007047000070B5044690F82000012804D068
:100DC000606A40F40020606218E0022084F820008D
:100DD0002068016821F00101016000F025F9054655
:100DE0000EE000BF00F020F9401B0A2808D9606A15
:100DF00040F400306062052084F82000012070BDBE
:100E000020684068C007EDD1606270BD70477047D0
:100E10007047704770477047704700002DE9F84FE2
:100E2000DFF8BCA10022012503264FF00F090AF1CB
:100E3000040BAAF1040E00BF0B6805FA02F423406C
:100E4000A34270D10F7907F00307012F01D0022FC1
:100E500016D187684FEA420806FA08FC27EA0C0711
:100E6000D1F80CC00CFA08FC4CEA070CC0F808C01A
:100E70004768A7430C79C4F3001494403C43446092
:100E80000C79E443A4070AD0C4684FEA420C06FA7E
:100E90000CF7BC438F6807FA0CF72743C7600C793F
:100EA00004F00304022C12D1D40800EB840CDCF80B
:100EB00020405707FF0E09FA07F824EA0804D1F882
:100EC000108008FA07F848EA0408CCF82080046883
:100ED0004FEA420C06FA0CF7BC430F7907F0030700
:100EE00007FA0CF7274307604C6814F4403F70D0B2
:100EF0003C4C276847F480472760246822F00307AA
:100F000004F480440094384C07EB040CDCF80848E7
:100F100097074FEA177809FA08F7BC43334FB842EE
:100F200002D1002724E054E0314FB84201D101271B
:100F30001EE0304FB84201D1022719E02E4FB842CF
:100F400001D1032714E02D4FB84201D104270FE04F
:100F50002B4FB84201D105270AE02A4FB84201D1F0
:100F6000062705E0284FB84201D1072700E00827EF
:100F700007FA08F72743CCF80878DAF80040574614
:100F8000D1F804C09C435FEACC2C00D51C433C60E4
:100F9000DBF800405F46D1F804C09C435FEA8C2C2C
:100FA00000D51C433C60DEF800407746D1F804C011
:100FB0009C435FEA8C3C00D51C433C60084F083FD3
:100FC0003C68D1F804C09C435FEACC3C00D51C438C
:100FD0003C60521C102AFFF42FAFBDE8F88F0000D0
:100FE000083C01404438024000300140000002400B
:100FF0000004024000080240000C024000100240C1
:101000000014024000180240001C0240426921EA1C
:1010100002030A4043EA0241816170470AB18161DB
:1010200070470904FBE70000014880687047000032
:1010300010000020024881680278114481607047E6
:10104000100000200B4810B5016841F400710160E8
:10105000016841F480610160016841F480710160C0
:10106000032000F09FF80F2000F006F800F050F881
:10107000002010BD003C024030B505461F4887B037
:101080000024016841F020010160006806A900F019
:101090002000009001A800F031F90498A8B100F0F8
:1010A0004DF940001649174AB0FBF1F11648491EA8
:1010B000026040F2E732C0E90324C0E90114846110
:1010C00000F0A8FB040003D015E000F037F9E9E7D1
:1010D0000D4800F0CDFB04000DD1372000F034F8AE
:1010E000102D07D200222946372000F03BF8074890
:1010F000056000E0012407B0204630BD40380240C2
:1011000040420F00001400405C0300201400002047
:101110000C4882B0016841F480410160006800F42D
:10112000804000900748001F016841F08051016035
:101130000068002200F0805000900F21901E02B045
:1011400000F010B844380240002809DB00F01F020C
:10115000012191404009800000F1E020C0F8001119
:1011600070470000F0B40E4B1B680C46C3F302231B
:10117000C3F10705042D00D90425191D072901D243
:10118000002300E0DB1E012606FA05F1491E21407E
:1011900099409E40761E16403143F0BC01F087B95D
:1011A0000CED00E0064900F0070208684FF6FF0367
:1011B000184040EA0220034A1043086070470000CC
:1011C0000CED00E00000FA052DE9F0470E460500A1
:1011D00065D0DFF81481D8F80000F7B200F00700FE
:1011E000B04207D288F80070D8F8000000F007007D
:1011F000B04254D128683D4C810712D5400703D531
:10120000206840F4E05020602878000703D520686B
:1012100040F4604020602068A96820F0F000084396
:1012200020602878C0072DD0304968680839012827
:1012300012D0022813D0032811D009688907002989
:101240002DDA216821F0030101432160FFF7ECFE54
:10125000814641F2883A0EE009688903EFE70968A0
:101260008901ECE7FFF7E0FEA0EB0901514502D947
:101270000320BDE8F0872068696800F00C00B0EB3F
:10128000810FEFD1D8F80010404601F00701B142BC
:1012900007D90770006800F00700B04201D00120B4
:1012A000E7E72878400705D52068E96820F4E05092
:1012B000084320602878000706D52068296920F4B3
:1012C000604040EAC100206000F048F82168084A08
:1012D000C1F30311515CC840064908600648006824
:1012E000FFF7CAFE0020C4E7003C02400838024075
:1012F000E43300081C000020140000200F220260CC
:101300000C4A136803F003034360136803F0F0030F
:101310008360136803F4E053C36012684FF4E05332
:1013200003EAD20202610448006800F00700086086
:101330007047000008380240003C0240044805495C
:1013400000680968044AC1F38221515CC8407047B3
:101350001C00002008380240F4330008154810B57E
:10136000006810F00C02144813D01449042A0FD05E
:10137000082A0ED10F4C241F2268236802F03F0276
:101380005B0207D52068C0F38810A0FB010106E0CE
:10139000084610BD2168C1F38811A1FB000100239C
:1013A000FEF7C2FF2168C1F30141491C4900B0FBAF
:1013B000F1F010BD083802400024F400001BB70013
:1013C0002DE9F84F04006ED02078DFF84C93C00769
:1013D000A9F104054AD009F104000168C1F38101B3
:1013E000012908D00068C0F3810002280AD1D9F889
:1013F0000000400206D52868800337D560680028C1
:10140000E1D033E06068B0F5803F10D0B0F5A02F98
:10141000286810D020F480302860286820F48020CC
:1014200028606068A8B1FFF7FFFD06460DE0286858
:1014300040F48030F4E740F480202860F7E700BFF4
:10144000FFF7F2FD801B642873D828688003F7D566
:101450000CE0FFF7E9FD064605E000BFFFF7E4FDFD
:10146000801B6428F0D828688003F7D42078DFF840
:10147000AC8280074FF0000A3ED5A748001D0168E6
:1014800011F00C0F08D00068C0F3810002280BD1C6
:10149000D9F80000400207D42868800716D5E06814
:1014A000012800D112E033E1E068B8B10120C8F8AA
:1014B0000000FFF7B9FD064605E000BFFFF7B4FDE9
:1014C000801B0228C0D828688007F7D528682169C2
:1014D00020F0F80040EAC10028600DE0C8F800A044
:1014E000FFF7A2FD064604E0FFF79EFD801B0228E1
:1014F0001FD828688007F7D42078000722D5864FA8
:1015000087486169703771B101210160FFF78CFD77
:10151000064604E0FFF788FD801B022809D83868DA
:101520008007F7D50EE0C0F800A0FFF77DFD064666
:1015300005E082E0FFF778FD801B02287DD838683F
:101540008007F7D42078400768D5DFF8CCB10027B2
:101550000BF13C0BDBF80000C0000BD4DBF80010F3
:1015600041F08051CBF80010DBF80000012700F0BB
:10157000805000906B4E3068C00510D4306840F445
:1015800080703060FFF750FD009005E0FFF74CFDE4
:101590000099401A022850D83068C005F6D55E4E32
:1015A000A0686C3601280FD00528306810D020F0D4
:1015B00001003060306820F004003060A068B8B1ED
:1015C000FFF732FD00900FE0306840F00100F4E7D3
:1015D00040F004003060F7E7FFF726FD0099411A5C
:1015E00041F28830814266D830688007F4D50EE039
:1015F000FFF71AFD009007E0FFF716FD0099411A6A
:1016000041F28830814256D830688007F4D42FB137
:10161000DBF8001021F08051CBF80010A069C8B3AE
:101620003D49091D0968C1F3810102294AD00228F8
:10163000504607D0C8F8600000E03CE0FFF7F4FC3B
:1016400004463BE04746C8F86000FFF7EDFC06465D
:1016500005E000BFFFF7E8FC801B02282BD82868B4
:101660008001F7D4D4E907010843A16A2E4A49084A
:1016700002EB0141626A41EA8211084394F82C109E
:1016800040EA0161C9F8001001203866FFF7CCFC80
:10169000044606E03EE000BFFFF7C6FC001B022840
:1016A00009D828688001F7D534E000BFFFF7BCFCFB
:1016B000001B022802D90320BDE8F88F28688001AA
:1016C000F4D427E00128F7D0D9F80000E26900F44B
:1016D000800191421CD1226A00F03F01914217D152
:1016E00047F6C071626A0140B1EB821F10D1A26A55
:1016F0004FF0FF3300F4403103EB5202B1EB024FE5
:1017000006D194F82C1000F07060B0EB016F01D09E
:101710000120D1E70020CFE7043802400000474213
:10172000800E4742007000400000FFFF7047704786
:1017300010B590F83C20012A22D0012280F83C20EC
:10174000CA688C6822F4407222434C6822F480629A
:1017500022430C6822F4006222430C6922F4805276
:1017600022434C6922F400522243C969002322F427
:1017700080420A4301684A6480F83C30002010BD72
:10178000022010BD70B590F83C20012A32D001240F
:1017900080F83C40022280F83D2003685A689D682A
:1017A00022F070060A6832435A60134B02689A426C
:1017B00014D0B2F1804F11D0104B9A420ED0104B82
:1017C0009A420BD00F4B9A4208D00F4B9A4205D049
:1017D0000E4B9A4202D00E4B9A4204D1496825F032
:1017E00080031943916080F83D40002180F83C104F
:1017F000084670BD022070BD00000140000400409A
:1018000000080040000C004000040140004001407E
:101810000018004010B5040003D094F83D0010B14A
:1018200007E0012010BD002084F83C00204600F0B5
:101830001EF8022084F83D00211D206800F0E4FC21
:10184000012084F8460084F83E0084F83F0084F8C4
:10185000400084F8410084F8420084F8430084F892
:10186000440084F8450084F83D00002010BD704716
:1018700090F83D10012901D001207047022180F825
:101880003D100168CA6842F00102CA60006811494F
:10189000884214D0B0F1804F11D00F4988420ED049
:1018A0000E4988420BD00E49884208D00D49884223
:1018B00005D00D49884202D00C49884204D1816884
:1018C00001F00701062903D0016841F00101016020
:1018D0000020704700000140000400400008004064
:1018E000000C00400004014000400140001800408E
:1018F00070472DE9F04104460068C66805694FF05D
:101900000007A90713D5B10711D5F91E0161012000
:101910002077206880698007204602D0FFF7E8FF23
:1019200004E000F0A9F8204600F04EF92777680798
:1019300016D5700714D521686FF0040008610220E5
:1019400020772068806910F4407F204602D0FFF79E
:10195000CFFF04E000F090F8204600F035F927773B
:10196000280715D5300713D521686FF008000861E6
:10197000042020772068C0698007204602D0FFF746
:10198000B7FF04E000F078F8204600F01DF9277753
:10199000E80616D5F00614D521686FF0100008612E
:1019A000082020772068C06910F4407F204602D0CC
:1019B000FFF79EFF04E000F05FF8204600F004F916
:1019C0002777E80708D0F00706D021686FF00100FC
:1019D0000861204600F05EF9280608D5300606D5D5
:1019E00021686FF0800008612046FFF79FFE6806BF
:1019F00008D5700606D521686FF0400008612046C2
:101A000000F052F9A8060AD5B00608D521686FF093
:101A1000200008612046BDE8F041FFF788BEBDE820
:101A2000F081000010B586B0044614216846FEF728
:101A300024FD0E492068884216D10D480021026815
:101A400042F010020260006800F0100005904FF4B0
:101A5000206000900220CDE901010120CDE90310B2
:101A600069460448FFF7DAF906B010BD00000140EE
:101A70003038024000100240704770B5044690F8BC
:101A80003C0000260D4601280FD0012084F83C00C0
:101A90006AB1042A1DD0082A2FD00C2A3FD0012673
:101AA000002084F83C00304670BD022070BD2068E4
:101AB00000F024FC2068816941F008018161206800
:101AC000816921F004018161206881692A691143DB
:101AD00011E0206800F042FC2068816941F4006157
:101AE00081612068816921F4806181612068816958
:101AF0002A6941EA02218161D2E7206800F064FC92
:101B00002068C16941F00801C1612068C16921F004
:101B10000401C1612068C1692A69114311E020688C
:101B200000F086FC2068C16941F40061C161206851
:101B3000C16921F48061C1612068C1692A6941EAF3
:101B40000221C161ACE710B5040003D094F83D0058
:101B500010B107E0012010BD002084F83C002046B1
:101B600000F01EF8022084F83D00211D206800F0DE
:101B70004BFB012084F8460084F83E0084F83F00C7
:101B800084F8400084F8410084F8420084F843005F
:101B900084F8440084F8450084F83D00002010BD1E
:101BA00008B500680649884208D10648016841F036
:101BB00001010160006800F00100009008BD000014
:101BC00000000140443802407047000010B5044650
:101BD000022249B104290ED0082913D094F84100FB
:101BE000012816D0012010BD94F83E000128F9D13B
:101BF00084F83E200FE094F83F000128F2D184F8E9
:101C00003F2008E094F840000128EBD184F8402000
:101C100001E084F841200122206800F061FB1649B0
:101C20002068164A884201D0904203D1436C43F4A5
:101C3000004343642068884213D0B0F1804F10D035
:101C40000F4988420DD00F4988420AD00E49884278
:101C500007D0904205D00D49884202D00C498842F5
:101C600004D1816801F00701062903D0016841F021
:101C700001010160002010BD00000140000401408E
:101C80000004004000080040000C004000400140FB
:101C90000018004000680349884201D1FFF7CAB923
:101CA00070470000001400407047FEE7114810B56F
:101CB0000F490160032141604FF0804181600021A4
:101CC0004FF41022C0E903124FF400124261017672
:101CD000012242768176C17601774177FEF719FFBE
:101CE000002803D0BDE81040FEF7A1BC10BD0000E5
:101CF00000640040EC02002010B59CB01C22164984
:101D00006846FEF788FB0021684600F045FC134C4E
:101D100011491C2220601C3107A8FEF77CFB002122
:101D200007A800F039FC0C4960601C2238310EA86D
:101D3000FEF771FB00210EA800F02EFC0649A06002
:101D40001C22543115A8FEF766FB002115A800F0EF
:101D500023FCE0601CB010BD7433000800000020BC
:101D600070B586B014216846FEF787FB1A48002438
:101D7000016841F001010160016801F00101059174
:101D8000016841F008010160016801F00801059156
:101D9000016841F080010160016801F08001059156
:101DA000016841F01001016000680C4E00F0100065
:101DB0004FF400650590002229463046FFF72EF9C2
:101DC00001200095CDE90104694630460394FFF7F0
:101DD00025F806B070BD000030380240001C0240FB
:101DE00010B592B000240F941C2168461094FEF7A1
:101DF00044FB202107A8FEF740FB2548234901604A
:101E0000A721C0E9011444F61F61C0E90314802131
:101E1000C0E90541FFF797FE08B1FEF708FC0F94F3
:101E20000FA91B481094FFF7ADFC08B1FEF7FFFBAC
:101E30006020CDE9000402940394049405940022E8
:101E4000694613480694FFF718FE08B1FEF7EFFB4A
:101E5000042269460E48FFF710FE08B1FEF7E7FBC3
:101E60000794089409944FF400500A94CDE90B406C
:101E700007A907480E94FFF75BFC08B1FEF7D7FBF4
:101E80000348FFF7CFFD12B010BD00000000014075
:101E900014030020FEE710B5B0F9083043810A882A
:101EA00052BA12B202814C88D31A64BA04808C8868
:101EB000B3F5805F64BA448089798171C16801DDBE
:101EC000491E03E013F5805F01DA491CC16002EB93
:101ED0004131016110BDFEE7154810B5B0F90000B1
:101EE00001F029F99FED131B53EC112B01F03AF986
:101EF00001F0F0F8114C00EE100AA08800EE900AF4
:101F00000F48F8EE600A00F071FBB4F9060000EE2D
:101F1000900A0C48F8EEE00A00F068FBBDEEC00A3B
:101F200010EE100A6080BDE81040282000F028BBA9
:101F300026000020C66D3480B7C03640080400205B
:101F4000480400201404002000B59FED563AB0EE7E
:101F5000001AF7EE000AB0EE432AF0EE431A9FEDA6
:101F6000520A524800F095FBDFED513AF3EE0E1A9B
:101F7000B0EE632ADFED4F2AB6EE000A4E48B0EE0F
:101F8000621AF0EE620A00F084FBB0EE432AF0EE33
:101F9000431AB0EE621AF0EE620AB7EE000A474842
:101FA00000F077FBB0EE632AF3EE0E1AB0EE621A81
:101FB000F0EE620AB7EE000A414800F06AFB3F48C3
:101FC000B0EE432AF0EE431AB0EE621AF0EE620A67
:101FD000B7EE000A343000F05CFB3948B0EE632AFB
:101FE000F3EE0E1AB0EE621AF0EE620AB7EE000AD5
:101FF000343000F04EFB3148B0EE432AF0EE431A85
:10200000B0EE621AF0EE620AB7EE000A683000F035
:1020100040FB2B48B0EE632AF3EE0E1AB0EE621AC4
:10202000F0EE620AB7EE000A683000F032FB234897
:10203000B0EE432AF0EE431AB0EE621AF0EE620AF6
:10204000B7EE000A9C3000F024FB1D48B0EE632A76
:10205000F3EE0E1AB0EE621AF0EE620AB7EE000A64
:102060009C3000F016FB1548B0EE432AF0EE431A00
:10207000B0EE621AF0EE620AB7EE000AD03000F05D
:1020800008FB0F48B0EE632AF3EE0E1AB0EE621AA8
:10209000F0EE620AB7EE000AD0305DF804EB00F013
:1020A000F8BA00000060EA460000964314040020DD
:1020B0000000C84200000000480400207C0400200A
:1020C0008005002010B500210448FFF77FFDBDE822
:1020D000104004210148FFF779BD000014030020DF
:1020E0000D484FF47A71008810FB01F0B42190FB89
:1020F000F1F00A4A00F2DC501368586308484FF4C4
:102100007A73008810FB03F090FBF1F0116800F285
:10211000DC50886370470000220000201403002078
:1021200024000020012000F02BFAFBE710B550201E
:1021300080F31188BFF34F8FBFF36F8F00F002FF62
:1021400018B104494FF080500860002080F31188D6
:1021500010BD000004ED00E030B593B030216846BA
:10216000FEF78BF914210CA8FEF787F91D4800250E
:10217000016841F080510160006800F080501190CA
:102180001948016841F4804101600068022400F4AC
:102190008040119001200090000401908001CDE961
:1021A000064006200890A820CDE9090404200B90E1
:1021B0006846FFF705F908B172B6FEE70CA90F20D3
:1021C00081E831004FF4A0500F904FF480501090F0
:1021D00005210CA8FEF7F8FF002801D072B6FEE733
:1021E00013B030BD40380240007000400248016822
:1021F00041F470010160704788ED00E00148FFF78D
:1022000078BB00005C030020F0B50268294C2A4D21
:102210002A4E2B4F2B4B4FF0804CA04209D06045EB
:1022200007D0A84205D0B04203D0B84201D09842AE
:1022300004D122F0700E4A6842EA0E02A0421BD07E
:10224000604519D0A84217D0B04215D0B84213D07B
:10225000984211D01C4DA8420ED01C4DA8420BD064
:102260001B4DA84208D01B4DA84205D01A4DA842CC
:1022700002D01A4DA84203D122F44075CA682A43FD
:102280004D6922F080022A4302608A68C2620A68AD
:102290008262A04201D0984201D109690163012103
:1022A00041610169C90703D0016921F001010161A0
:1022B000F0BD0000000001400004004000080040A4
:1022C000000C004000040140004001400044014077
:1022D0000048014000180040001C00400020004061
:1022E00010B501F01F030121046A99408C43046278
:1022F000016A9A401143016210BD0000F0B5036A03
:10230000026A22F00102026242688469124E24F0DD
:1023100073050C682C4323F002058B682B430D4D8D
:10232000A84201D0B04205D123F00807CB683B4357
:1023300023F00403A84201D0B04205D14D6922F434
:10234000407215438A692A43426084614968416347
:102350000362F0BD0000014000040140F0B5026AD4
:10236000036A23F010030362436884690D6824F450
:10237000E64444EA05248D6822F0200242EA051270
:102380000F4D104EA84201D0B04206D1CF6822F0C6
:10239000800242EA071222F04002A84201D0B04275
:1023A00007D14D6923F4406343EA85038D6943EA0D
:1023B000850343608461496881630262F0BD000067
:1023C0000000014000040140F0B5026A036A23F4F2
:1023D000807303624368C46922F4007224F07305B9
:1023E0000C68124E2C438D6842EA05220E4DA8421D
:1023F00001D0B04206D1CF6822F4006242EA07223F
:1024000022F48062A84201D0B04207D14D6923F482
:10241000405343EA05138D6943EA05134360C461E1
:102420004968C1630262F0BD000001400004014040
:1024300030B5046A026A22F4805202624268C369BB
:102440000D6823F4E64343EA05238D6824F4005421
:1024500044EA0534084DA84202D0084DA84204D1F0
:102460004D6922F4804242EA85124260C3614968A4
:102470000164046230BD000000000140000401401E
:10248000084EDFF8248046254FF47A746FF09F07DA
:102490003580204600F074F8A8F80070204600F05F
:1024A0006FF8F5E72400002022000020FEE709076E
:1024B000090E002804DB00F1E02080F800147047CA
:1024C00000F00F0000F1E02080F8141D70470000BC
:1024D00000B58BB000200121CDE9060108910090E4
:1024E0000190029003900590049069460C48FEF715
:1024F00011F90B48FEF75EFC02210948FEF799F836
:102500000E200990059069460548FEF703F9044836
:10251000FEF750FC02210248FEF78BF80BB000BD1D
:10252000EC020020FEF78EFDFFF716FEFFF718FC09
:10253000FFF7BCFBFFF754FC0122D1020A48FEF76B
:102540006DFDFFF7C5FFFFF7FFFCFFF7BBFD074978
:102550006FF03B00088006496FF09F000880FFF78E
:10256000CBFB00F014F8FEE7001C02402400002022
:102570002200002001460020842900D0C81C70479A
:1025800010B500B9012000F079FB002010BD10B596
:1025900000F09AFB002010BD7FB50D46044641694E
:1025A000B0F9080081B1A16971B1FFF7E3FFD4E987
:1025B00005128DE80700D4E900102B46226900F0CF
:1025C00096FC039004B070BDFFF7D4FF03A9CDE9DA
:1025D0000001208A2B4682B2D4E9001000F05AFC98
:1025E000012801D00020EDE70398EBE780ED050A14
:1025F000C0ED060A90ED071A70EE600A80ED081A29
:10260000C0ED070A90ED000A60EE201AC0ED091A2D
:1026100090ED0A0A90ED012A02EE200A70EEC10A3E
:1026200080ED0A0A90ED021A20EE812A80ED0B2A35
:10263000D0ED030AB1EE601AB4EEC10AF1EE10FA61
:1026400002D8B0EE410A06E0B4EEE00AF1EE10FA6C
:1026500001DBB0EE600A80ED0A0A31EE800A30EE4E
:10266000020A80ED0C0AD0ED040AB1EE601AB4EE55
:10267000C10AF1EE10FA02D8B0EE410A06E0B4EE5B
:10268000E00AF1EE10FA01DBB0EE600A80ED0C0A10
:10269000704780EC050A70472DE9F041184C0F4651
:1026A0000546E6682068001D00F020FA38B9206869
:1026B00090F82C1001208840216981432161681C19
:1026C00007D137B12168BDE8F0410E48091D00F07F
:1026D00051BA20683544B5424560216805D2A06BE7
:1026E000BDE8F041091D00F02DBA606B091D00F036
:1026F00029FAA06A854200D2A562BDE8F0810000F7
:1027000030000020600700202DE9F041054600F070
:102710003DFA2E4CA068401CA06020682C4F10B1E0
:10272000606940B32DE02560A068012829D100260A
:1027300006EB860007EB800000F0F6F9761C072E0A
:10274000F6D323488C3000F0EFF92148A03000F098
:10275000EBF91F48B43000F0E7F91D48C83000F02D
:10276000E3F91B48DC3000F0DFF919488C30606376
:102770001430A06305E02068E96AC06A884200D886
:102780002560606A401C6062E96A01202269884015
:102790001043206101EB810007EB8000291D00F050
:1027A000E9F900F013FA606900280CD02068E96AA2
:1027B000C06A884207D207494FF080500860BFF3D3
:1027C0004F8FBFF36F8FBDE8F08100003000002015
:1027D0008406002004ED00E010B5044690F8510096
:1027E00058B101280CD002280FD0502080F3118856
:1027F000BFF34F8FBFF36F8FFEE7206B00F0FAF946
:102800002046BDE8104000F0F5B910BD10484FF467
:102810007051420706D0C01D0D4920F00700411A33
:10282000C1F570510B4A00230144C2E90003083985
:10283000183A21F0070111604B600B600B1AC0E9D8
:10284000001393604FF000405360506170470000E8
:102850007407002084000020144E154CA6F1C80710
:102860004FF08058DFF84C9012E000BF00F08EF976
:10287000F068C568281D00F039F9A068401EA06006
:102880006068401E606000F0A1F92846FFF7A4FFD1
:1028900060680028EAD138680128F9D9C9F80080B1
:1028A000BFF34F8FBFF36F8FF2E700004C0700209C
:1028B0003000002004ED00E02DE9F0479A46DDE904
:1028C000098481466FF00303206B03EB82021044FE
:1028D000089E20F00707780707D0502080F3118862
:1028E000BFF34F8FBFF36F8FFEE7002561B100206C
:1028F00023180A5C83F834200A5C12B1401C1028AB
:10290000F6D384F8435001E084F83450072E00D306
:102910000626E662C4E91165201D00F010F904F1F5
:10292000180000F00CF92461C6F107006462A06190
:10293000E56484F8505052464946384600F0C0F8E5
:102940002060B8F1000F01D0C8F80040BDE8F08762
:1029500030B5114900E011460A688242FBD34B684A
:102960005C18844203D140681844486008464368B4
:102970001C18944209D1084C183C2468A24209D082
:1029800052681A4442600A6812680260814200D0AC
:10299000086030BD0460F9E7840000200648416B00
:1029A000096829B1416BC968C96849688162704783
:1029B0004FF0FF31FAE7000030000020084840687F
:1029C000401C4FF0500080F3118804D0BFF34F8FAC
:1029D000BFF36F8FFEE7BFF34F8FBFF36F8FFEE73D
:1029E0008C0000202DE9F0410546002700F0A2F9F7
:1029F000324E306808B9FFF709FF706905424ED1C1
:102A0000C5B3083568070ED005F00700C0F108000F
:102A10000544680707D0502080F31188BFF34F8F1B
:102A2000BFF36F8FFEE72DB37068854237D8234818
:102A3000183001460C6801E020460C466168A94246
:102A400002D221680029F7D131688C4227D007686B
:102A50002168016060680837411B10290FD960198F
:102A6000420708D0502080F31188BFF34F8FBFF387
:102A70006F8FFEE713E041606560FFF769FF6168F3
:102A80007068401A7060B268904200D2B06070699D
:102A900001430020C4E90001F068401CF06000F030
:102AA000B7FA780707D0502080F31188BFF34F8F13
:102AB000BFF36F8FFEE73846BDE8F0816C00002061
:102AC00010B5031F4FF080741C601B1F21F0010123
:102AD0001960191F044B0B6014390A60091F6FF04D
:102AE000020244380A6010BDBD290008D0E9013255
:102AF00001699A60D0E901235A604A68824201D193
:102B000082684A60002202610868401E0860086806
:102B100070470000034B036003F1540008608020FD
:102B2000106070479800002000F108014FF0FF325C
:102B3000C0E90112C16001610021016070470021FC
:102B40000161704730B50B685A1C02D000F10802D1
:102B500002E0026904E02246546825689D42FAD9E1
:102B600053684B6099608A60516008610168491C34
:102B7000016030BD42684A6093688B609368596019
:102B8000916008610168491C01607047502080F322
:102B90001188BFF34F8FBFF36F8F0A494868401CFD
:102BA000486001280CD10848006810F0FF0F07D0DA
:102BB000502080F31188BFF34F8FBFF36F8FFEE774
:102BC000704700008C00002004ED00E008494868D0
:102BD00028B1401E486001D180F311887047502011
:102BE00080F31188BFF34F8FBFF36F8FFEE70000B4
:102BF0008C00002070B500282AD0164DA0F10804E2
:102C000060686969084207D1502080F31188BFF3DA
:102C10004F8FBFF36F8FFEE722683AB1502080F3E9
:102C20001188BFF34F8FBFF36F8FFEE7884360605B
:102C300000F080F860686968084468602046FFF723
:102C400087FE2869401C2861BDE8704000F0E0B9AB
:102C500070BD00006C0000204FF0E02000210161F9
:102C6000816105494FF47A720968B1FBF2F1491E9E
:102C700041610721016170471C00002010B502006E
:102C800014D00F48006B38B1502080F31188BFF387
:102C90004F8FBFF36F8FFEE700F04CF80021104616
:102CA000FFF7FAFC00F0B4F9002807D105494FF00E
:102CB00080500860BFF34F8FBFF36F8F10BD0000CF
:102CC0003000002004ED00E010B586B0002403942D
:102CD00005AA04A903A80494FFF71CFFDDE903017A
:102CE0000094CDE9011000230EA11048059A00F0D0
:102CF000FEF80F490028C86211D0502080F31188D7
:102D0000BFF34F8FBFF36F8F4FF0FF30886201200A
:102D10004861CC6006B0BDE8104000F041B806B094
:102D200010BD000049444C4500000000592800082F
:102D3000300000200248016B491C0163704700000D
:102D4000300000201448016B11B10121C1617047AE
:102D50000021C1610169B1FA81F1C1F11F0101EBEB
:102D600081020E4951F822306BB101EB820101F171
:102D700008034A6852684A609A4201D152684A6020
:102D8000D16801607047502080F31188BFF34F8FE6
:102D9000BFF36F8FFEE700003000002084060020A4
:102DA0001CB537480168374A914207D1502080F35B
:102DB0001188BFF34F8FBFF36F8FFEE70068314973
:102DC000491E884207D1502080F31188BFF34F8FEE
:102DD000BFF36F8FFEE72C4908780190FF20087041
:102DE00008788DF800009DF800009DF8002000F0A4
:102DF000F000904207D0502080F31188BFF34F8F2E
:102E0000BFF36F8FFEE79DF80000204C00F05000EC
:102E100020700720A06005E09DF8002052008DF88A
:102E20000020401E9DF800201206F5D4A060032863
:102E300007D0502080F31188BFF34F8FBFF36F8FFF
:102E4000FEE74FF44070A060019808700C482030F5
:102E5000016841F470010160016841F07041016056
:102E6000FFF7FAFE00206060FDF702FA08480168EB
:102E700041F040410160FDF7E7F900201CBD000072
:102E800000ED00E071C20F4100E400E08C00002082
:102E900034EF00E02DE9FF5F8346DDE90E879946B8
:102EA00016468A469000FFF79DFD05001CD0542071
:102EB000FFF798FD040014D00020256384F851002A
:102EC000CDE90240CDE900874B463246514658468F
:102ED000FFF7F2FC2046FFF717FC012004B0BDE825
:102EE000F09F2846FFF786FE4FF0FF30F6E7F0B57B
:102EF00085B0DDE90B640A9DA6B1DCB154270097CB
:102F00002663022684F85160002604AFCDE902460C
:102F1000CDE90057FFF7D0FC2046FFF7F5FB0498FA
:102F200005B0F0BD502080F31188BFF34F8FBFF381
:102F30006F8FFEE7502080F31188BFF34F8FBFF3F0
:102F40006F8FFEE72DE9F0412F4C0026206B28B152
:102F5000A069401CA0613046BDE8F081E5686D1CA9
:102F6000E56013D1606B006838B1502080F31188A0
:102F7000BFF34F8FBFF36F8FFEE7606BA16B616391
:102F8000A063206A401C2062FFF708FDA06ADFF8FA
:102F90007C80854209D3606B0068A0B1606BC0681B
:102FA000C7687868854211D2A0622068C06A00EBC9
:102FB000800158F82100012800D90126E069002885
:102FC000C9D00126C7E74FF0FF30EDE7381DFFF706
:102FD0008DFDB86A18B107F11800FFF787FDF96A8F
:102FE0000120226988401043206101EB810108EB38
:102FF0008100391DFFF7BEFDF86A2168C96A884261
:10300000C9D30126C7E70000300000208406002055
:103010002DE9F0472C4D00242746286B38B1FFF7E7
:10302000B5FD286B401E2863286B40B146E0502058
:1030300080F31188BFF34F8FBFF36F8FFEE7A9684E
:10304000224E0120D1B3A6F1B40980463068E8B120
:10305000F068C46804F11800FFF748FD201DFFF771
:1030600045FDE06A2A6908FA00F11143296100EB85
:10307000800109EB8100211DFFF77CFDE06A2968D2
:10308000C96A8842E2D3C5F81C80DFE70CB1FFF7BC
:1030900085FCAC6944B14646FFF754FF00B1EE61D0
:1030A000641EF9D10020A861E86938B108490127F8
:1030B00038070860BFF34F8FBFF36F8FFFF786FDB0
:1030C0003846BDE8F08700003000002038070020B7
:1030D00004ED00E021F00042A2F16052B2F5801F41
:1030E00001F0004328BFD2F17F6C0BD95FEA001CCE
:1030F00043EAC20242EB507018BF704728BF20F06D
:1031000001007047B2F5801FBCBF184670474FEAF8
:10311000410C1CF5001F02D2084600F026B970B51C
:1031200000F0CAF800000089FFF7F6BF4FF000403A
:10313000A0F58000704710F0004248BF4042B0FA4E
:1031400080F310FA03F10AD0C3F11D0303F5806385
:103150004FEA415002EB035202EBD12170474FF08E
:1031600000007047DFF848C170B51CEA111E1EBF91
:103170001CEA13159EEA0C0F95EA0C0F00F06F8005
:1031800081EA030423EA4C134EEAD47E21EA4C116F
:1031900041F4801143F48013AE44A1FB024CA0FB28
:1031A0000365AEF17F7E361955EB0C05A1FB034C90
:1031B0004CF10003A0FB021C16EB0C06654153F119
:1031C0000003094218BF46F0010613F4007F0BD13B
:1031D0004FEA03314FEA0530340341EA155140EA22
:1031E00016506FF003020AE04FEAC3214FEAC520F0
:1031F000F40241EA555140EA56506FF0020202EBE8
:103200002E4201EB025585EACE710AD05FEA440CEA
:1032100018BF24F0004450F1000041F1000120EA01
:10322000D47040F2FE7C624500D270BDA84214BF4B
:103230004FF080444FF04044002E08BF0024BEF100
:10324000806FA8BFA1F1C041BDE8704080F28280CC
:103250004FF0000001F1C04101F0004170479EEACB
:103260000C0F0CEA131518BF95EA0C0F06D04FF09F
:10327000000081EA030E0EF0004170BD00F01CF862
:103280008900013E00F007B800F009B84FEA430C8E
:103290005FEA5C5C08D081EA030100F05BB84FEAAA
:1032A000410C5FEA5C5CF6D14FF0000001497047C9
:1032B0000000FF070000F87F0EF1020E2EF0030E53
:1032C0005EF8046B364205D4012A43EB030515F57D
:1032D000001F12D8012841EB010C1CF5001F0CD86F
:1032E0000ED14FEAD17C15F5001F0CEB4C0C0CF104
:1032F000020C08BF4CEBD37C04E04FF0080C01E05B
:103300004FEAD37C0CEB4C0526FA05F606F00706CF
:10331000B6F1040C06D20EEB860CBDE870404CF002
:10332000010C6047DFE80CF0090B02024FF000418E
:103330004FF00000A1F5002170BD1946104601288C
:1033400051EB010418BFD4F5001484BF002001F034
:10335000004170BD0808A0F500114FEA3101704727
:103360004FF04070E1EE100A7047FF2141EAD05063
:10337000C00570470834000825210008000000003F
:1033800000000000800000000000000000000000BD
:103390001434000881240008000000000000000030
:1033A000000100000000000000000000FC330008E5
:1033B000F10500080000000000000000000100000E
:1033C000000000000000000004340008D91E0008BE
:1033D000000000000000000080000000000000006D
:1033E00000000000000000000000000001020304D3
:1033F0000607080900000000010203046368617306
:10340000736963007069640064656661756C745407
:1034100061736B0054657374000000003C34000855
:103420000000002098000000C4010008D434000807
:103430009800002040490000E00100080000000062
:10344000000000000000000000000000010000007B
:1034500010000000000000000024F4000000000044
:10346000000000000000000000000000000000005C
:10347000000000000000000000000000000000004C
:10348000000000000000000000000000000000003C
:10349000000000000000000000000000000000002C
:1034A000000000000000000000000000000000001C
:1034B000000000000000000000000000000000000C
:1034C000000000000000000000000000AAAAAAAA54
:0434D00000000000F8
:040000050800018965
:00000001FF
