:020000040800F2
:100000002009002079020008890200088B020008FC
:100010008D0200088F020008910200080000000015
:100020000000000000000000000000009302000833
:1000300095020008000000009702000899020008DD
:100040009B0200089B0200089B0200089B0200081C
:100050009B0200089B0200089B0200089B0200080C
:100060009B0200089B0200089B0200089B020008FC
:100070009B0200089B0200089B0200089B020008EC
:100080009B0200089B0200089B0200089B020008DC
:100090009B0200089B0200089B0200089B020008CC
:1000A0009B0200089B0200089B0200089B020008BC
:1000B0009B0200089B0200089B0200089B020008AC
:1000C0009B0200089B0200089B0200089B0200089C
:1000D0009B0200088D1500089B0200089B02000887
:1000E0009B0200089B0200089B0200089B0200087C
:1000F0009B0200089B0200089B0200089B0200086C
:100100009B0200089B0200089B0200089B0200085B
:100110009B0200089B0200089B0200089B0200084B
:100120009B0200089B0200089B0200089B0200083B
:100130009B0200089B0200089B0200089B0200082B
:100140009B0200089B0200089B0200089B0200081B
:100150009B0200089B0200089B0200089B0200080B
:100160009B0200089B0200089B0200089B020008FB
:100170009B0200089B0200089B0200080000000090
:100180009B0200089B0200089B0200089B020008DB
:100190009B0200089B0200089B0200089B020008CB
:1001A0009B0200089B0200089B02000800F002F876
:1001B00000F052F80AA090E8000C82448344AAF1AF
:1001C0000107DA4501D100F047F8AFF2090EBAE8AD
:1001D0000F0013F0010F18BFFB1A43F0010318477B
:1001E00084230100A4230100103A24BF78C878C1F9
:1001F000FAD8520724BF30C830C144BF04680C602D
:10020000704700000023002400250026103A28BF74
:1002100078C1FBD8520728BF30C148BF0B60704778
:10022000662908F08682642900F09480782900F01D
:10023000CD80732900F09984002070471FB508F025
:1002400073FA00F0A9FC04000020002107F01EFF53
:10025000E0601FBD10B510BD00F0A2FD1146FFF714
:10026000EDFF06F099FB00F0C0FD03B4FFF7F2FFCD
:1002700003BC01F052FA0000DFF82C00016841F4E1
:100280007001016009480047FEE7FEE7FEE7FEE770
:10029000FEE7FEE7FEE7FEE7FEE7FEE70448054966
:1002A000034A054B7047000088ED00E0AD010008EF
:1002B00020010020200900202001002070470000BC
:1002C0000FB4044910B503AA029800F053FC10BC07
:1002D0005DF814FB240000200FB41CB5074B06AAE0
:1002E0007B4469460090059800F015FC00206946A3
:1002F00000F024FC1CBC5DF814FB00005908000051
:1003000070B50C460546012A05D02878800600D530
:10031000EA69002302E0012305E05B1C934202D25C
:10032000E05C0028F9D1A869E618C01AA861286A1B
:10033000184428622846AFF3008004E0D5E9012183
:1003400014F8010B9047B442F8D32846AFF300806D
:1003500070BD00002DE9F0410646002410687529A3
:10036000314616A510D0AFF30080002802DA4042D3
:1003700013A507E031688A0701D512A502E04907F5
:1003800004D511A5012401E0AFF3008000210A2269
:1003900006F1240709E0B0FBF2FCB0FBF2F302FB2C
:1003A0001C00303078541846491C0028F3D12346ED
:1003B0002A463046BDE8F04100F040B90000000098
:1003C0002D0000002B0000002000000070B5044646
:1003D0000D4621461068AFF300802188090502D53B
:1003E0000F4A7A4402E00E4A7A440E32002104F1A8
:1003F000240305E000F00F060009965D5E54491CD9
:100400000028F7D120780023000704D5702D02D0F2
:1004100009B1022311322046BDE8704000F00EB948
:10042000322001002DE9F05F894604464FF0000AB2
:10043000DFF824B1FB44C0F820A02046E1688847DB
:1004400000287DD0252806D0D4E901219047206AD4
:10045000401C2062F1E700255F462046E16888479E
:100460002028064607DB312E05D2B81910F8200CDB
:1004700008B10543F1E7A80701D525F00405C4F844
:100480001CA00027C4F818A02A2E09D0304601F07D
:100490003DF938B304EB8708303EC8F8186019E01E
:1004A00059F8041B204604EB87029161E1688847F4
:1004B000012F064618D1E069002820DA25F0200532
:1004C0001DE0D8F8180000EB800006EB4000303843
:1004D000C8F818002046E1688847064601F016F97A
:1004E0000028EED1012F0AD02E2E08D12046E16837
:1004F00088477F1C0646022F45F02005C4DBA06913
:10050000002803DA404245F00105A061E80701D068
:1005100025F01005A6B1A6F14100192802D8203611
:1005200045F400654A463146204625604D46FFF7B2
:1005300077FE60B1012807D0ED1D25F0070000E02F
:1005400007E000F1080978E705F1040975E730468E
:100550007AE7206ABDE8F09F0820010040EA010325
:1005600010B59B070FD1042A0DD310C808C9121F5C
:100570009C42F8D020BA19BA884201D9012010BD96
:100580004FF0FF3010BD1AB1D30703D0521C07E063
:10059000002010BD10F8013B11F8014B1B1B07D1C7
:1005A00010F8013B11F8014B1B1B01D1921EF1D138
:1005B000184610BD4FF0013C50F8042B51F8043B95
:1005C0009A4221D1A2EB0C03934313EACC1317D127
:1005D00050F8042B51F8043B9A4215D1A2EB0C03BE
:1005E000934313EACC130BD150F8042B51F8043B7E
:1005F0009A4209D1A2EB0C03934313EACC13DBD04C
:100600004FF00000704700BFD01A01BAB1FA81F173
:1006100001F0180122FA01F0CB40C1F12001DBB258
:10062000C0B2C01A2CFA01F3D11A914311EAC311D6
:10063000E6D1704770477047704770472DE9F04723
:100640000D4699469246044600F124080168880642
:1006500004D5E06921F01001216000E00120A842EA
:1006600001DD471B00E00027A1697A1902EB0900B0
:10067000081AA0612078C00602D42046AFF300809B
:10068000002608E0D4E901211AF806009047206A04
:10069000401C761C20624E45F4DB2078C0060AD54B
:1006A0002046AFF3008006E0D4E9012130209047D6
:1006B000206A401C2062381EA7F10107F4DC07E025
:1006C000D4E9012118F805009047206A401C2062F7
:1006D000281EA5F10105F3DC2046AFF30080207849
:1006E000000602D50220BDE8F0870120FBE7704735
:1006F0002DE9FF4F0C461E464FF0FF378BB0D2E975
:100700000001DDF860800A908A46C1F30A5505B9F8
:100710003D46002108464FF00000BAF1000F00F4FA
:10072000400005DA00EB80004FF4400101EA500080
:100730004FEA9059B9F1010F00DDB9460A9850EA25
:100740004A000ED044F61050A5F2FF3545432F1451
:10075000B8F1000F1ED07542291E1EDDC9F100023E
:100760001CE0B8F1010F4FF0000001D0302103E090
:10077000F24305E02154401CB042FBDB304600222E
:10078000002121540B99C1F80880C1E900200FB065
:10079000BDE8F08FBD1B6D1CDEE74A4600DA6942FA
:1007A00006A800F083FA06AB93E8070003AB83E8E2
:1007B000070050460A9900F021FB8DE80700A0F5DC
:1007C00000501F3800900398002D0ADD42F21F01EF
:1007D0004A460844002303A90390684600F08AFDB6
:1007E00009E0A0F500504A461F38002303A90390F2
:1007F000684600F094FD8DE807000004000C03D06B
:100800004FF0FF30410800E01046B8F1000F03D070
:100810000022009215461EE0751E05D400F0C0F9B6
:10082000303262556D1EF9D5B3460122084302D01D
:1008300000227F1C04E02078302801D100227F1E96
:10084000002A099784D01DE0112D07DA00F0A8F9DD
:10085000303262556D1C50EA0102F5D1084302D0D6
:100860000098C8B10EE00021681E05E0235C625CC0
:1008700063542254401E491C8142F7DBAB46A81B3F
:10088000401E0990002004F80B000B98099AC0F84C
:100890000880C0E9002B7AE711264FF0000857E7DF
:1008A0002DE9F04F88460446D21D22F0070191B091
:1008B000D1E90001CDE90A0100F010FF02460B98D2
:1008C000C00F01D02D2007E02068810701D52B2023
:1008D00002E0202101EAC000032A099001D0072A82
:1008E00005DB03464146204600F0A0F90BE12078E5
:1008F000800601D5E06900E00620B8F1650F814669
:1009000006D0B8F1660F18D0B8F1670F70D131E09A
:100910000020B9F1110F009001DB112301E009F172
:1009200001030AAA01A90CA8FFF7E2FEDDE90C7099
:10093000002609F10105834647E001204B4600905F
:100940004FF000470AAA01A90CA8FFF7D1FEDDE984
:100950000DB00C995D46002610B909F101000D1883
:10096000B9EB050003D4C0F1FF3609F10105A5EB91
:1009700009002BE0B9F1010F01DA4FF00109002065
:10098000B9F1110F0090484601DD112300E0034644
:100990000AAA01A90CA8FFF7ABFEDDE90C704D46D1
:1009A00000268346207800070AD4AB4500DA5D466E
:1009B00001A8012D04DD411911F8011C302907D0CF
:1009C0004F4502DA17F1040F04DA012082460FE0E6
:1009D0006D1EEEE7002F02DCED1B3E4403E0781CA9
:1009E000A84200DD7D1CB81B00F1010A4FF0004752
:1009F0002078000703D4AA4501DB4FF0FF3A00211D
:100A0000B7F1004F0DF143088DF8431024D00220B8
:100A10002B23002F01DA7F422D230A21021EA0F191
:100A2000010000DC5FB197FBF1FC97FBF1F201FBE9
:100A30001C7C17460CF1300C08F801CDEEE7A8F14C
:100A4000010003702188090501D5452100E06521D9
:100A5000A0F1010800F8011C09980FA9A1EB0807F3
:100A6000FF1D00B10120411901EBEA70A169384472
:100A7000081A401EA0612078C00602D42046AFF3B9
:100A80000080099828B1D4E901219047206A401CD0
:100A900020622078C00622D52046AFF300801EE0F9
:100AA000002E04DBB34502DD01A8805D00E03020AC
:100AB000D4E901219047206A401C2062761CAAF1EB
:100AC00001005FEA000A0AD100F066F8C068016818
:100AD000405CD4E901219047206A401C2062281E16
:100AE000A5F10105DCDC07E0D4E9012118F8010BD0
:100AF0009047206A401C2062381EA7F10107F3DCF2
:100B00002046AFF30080032011B041E601694A1C82
:100B100002610878704700B58FB0CDE9013100213E
:100B2000059105497944CDE9031011466846FFF760
:100B300079FC0FB000BD0000E5FFFFFF0A6802F876
:100B4000010B0A60704710B5436913B1AFF3008021
:100B500001E0FFF7D5FB012010BD127800F1240160
:100B60000A7000224A700122EDE711684FF0FF324F
:100B7000E9E70000074B70B50D467B44FFF7CBFF5C
:100B80000446284600F004F910B14FF0FF3070BD64
:100B9000204670BD0B10000000487047E0000020A8
:100BA00030B5B0F10A024FEA900E71F100034EEA3F
:100BB000817EB0EB0E0061EB91014FEA101E4EEA10
:100BC000017E10EB0E0041EB11114FEA102E4EEAA0
:100BD000016E10EB0E0041EB11214FEA104E4EEA70
:100BE000014E10EB0E0041EB1141401841F10001A4
:100BF0004FEAD00040EA41704FEAD10110EB800586
:100C00004FEA810444EA907444EB01046D1944EB0B
:100C10000404521BA3414FF0000348BF0A3200D521
:100C200030BD401C41F1000130BD00002DE9F04114
:100C30001F46044603260168072A01F4006004DB0E
:100C400008B116A505E016A503E008B115A500E05A
:100C500015A521F010002060A069C01EA0610FB191
:100C6000401EA0612046AFF300804FB1D4E90121BE
:100C700038469047206A401C2062C01C206206E073
:100C8000206AFAE7D4E9012115F8010B9047761E96
:100C9000F8D22046AFF30080BDE8F0814E414E000F
:100CA0006E616E00494E4600696E66002DE9F047A0
:100CB000814616468AB0354878440DC88DE80D0047
:100CC00032487844801C03AC0DC884E80D0041F61E
:100CD0009B300844372190FBF1F290FBF1F5A5F130
:100CE000800501FB12041B3C02D56442012000E098
:100CF0000020DFF898A080460027FA44AAF1BE0A37
:100D00000EE0E0070AD03246684607EB47010123B0
:100D10000AEB810100F003FB8DE8070064107F1CE3
:100D2000002CEED1194F7F44AE3F19E0E80715D0F3
:100D300007EB04100DF1180A90E80E008AE80E0087
:100D4000C068F04201D1981908903246012306A9E3
:100D500003A800F0E4FA03AB83E807006D10641CFD
:100D6000002DE3D14FF0010332466946B8F1000F80
:100D700003A802D000F0BEFA01E000F0D0FAC9E901
:100D80000001C9F808200AB0BDE8F0871418010076
:100D9000007B00F08000704700487047C0000020D2
:100DA0007546FFF7F9FFAE4605006946534620F049
:100DB0000700854618B020B5FFF770FABDE820405F
:100DC0004FF000064FF000074FF000084FF0000B07
:100DD00021F00701AC46ACE8C009ACE8C009ACE8BA
:100DE000C009ACE8C0098D46704710B50446AFF3A2
:100DF00000802046BDE81040FFF737BA5FEA400C9C
:100E000008BF91F0000F4FEA8C234FEAC12243EA5A
:100E100051514FEA1C5018BF00F5F0404FEA300026
:100E200018BF41F000415FEA6C5C00F02980BCF122
:100E3000FF3F08BF40F080407047130C06BF12040C
:100E40004FF0100C4FF0000C130E04BF12020CF107
:100E5000080C130F04BF12010CF1040C930F04BF14
:100E600092000CF1020CD30F04BF52000CF1010CE4
:100E700011464FF00002A0F11F00A0EB0C007047DC
:100E800011F0004F08BF704731F000413FF4D5AF7B
:100E90000B0C06BF09044FF0100C4FF0000C0B0EAA
:100EA00004BF09020CF1080C0B0F04BF09010CF17F
:100EB000040C8B0F04BF89000CF1020CCB0F04BF94
:100EC00049000CF1010CCCF12003A0EB0C0022FA3C
:100ED00003F302FA0CF241EA030100F1010070474A
:100EE00020F07F4C80EA030023F07F47ACEB070340
:100EF00003F57C5300F0004003F1FF032DE9804926
:100F00004FEA154B09B44FEA144325EA0B4E24EA85
:100F100003480FF2042606EB132749083E785FEAE0
:100F2000320203FB0667C7F5000707FB06F64FEA28
:100F300054374FEAD64606F1020607FB066CCCF1A1
:100F4000005C4FEA1C472CEA074C07FB06F40CFB3D
:100F500006F504EB15464FEA961634BF00204FF015
:100F600000404FEAD13706FB07FC4FEA1C4C0CFB54
:100F70000BF7D21B03FB0CF761EB07010CFB0EF721
:100F8000B0EB074072EB17420CFB08F734BFA2EB43
:100F90000742B2EB074261EB17414FEA0C444FEABC
:100FA000910706FB07FC4FEA1C4C0CFB0BF7B0EB60
:100FB000C74072EB573203FB0CF734BFA2EBC742BA
:100FC000B2EBC74261EB57310CFB0EF7B0EBC70039
:100FD00072EB57720CFB08F734BFA2EBC702B2EBFF
:100FE000C70261EB5771039F4FEA816141EA921199
:100FF00004EBCC044FEAD1374FEA826206FB07FCD0
:1010000042EA90124FEA80604FEA1C4C0CFB0BF74F
:10101000D21B03FB0CF761EB07010CFB0EF7B0EBE7
:10102000074072EB17420CFB08F734BFA2EB0742F4
:10103000B2EB074261EB17414FEA8C554FEA91073B
:1010400004EB9C2406FB07FC4FEA1C4C0CFB0BF743
:10105000B0EBC74072EB573203FB0CF734BFA2EB87
:10106000C742B2EBC74261EB57310CFB0EF7B0EB56
:10107000C70072EB57720CFB08F734BFA2EBC70234
:10108000B2EBC70261EB577115EB4C254FEA81615A
:1010900041EA92114FEA82624FEAD13742EA901256
:1010A00006FB07FC44F100044FEA80604FEA1C4C49
:1010B0000CFB0BF7D21B03FB0CF761EB07010CFBDE
:1010C0000EF7B0EB074072EB17420CFB08F734BF8A
:1010D000A2EB0742B2EB074261EB174115EB1C157F
:1010E0004FEA813141EA92414FEA823242EA90422C
:1010F0004FEA80304FEA0C7644F1000448EA03439B
:101100004EEA0B484FF0000EB2EB080C71EB0307F0
:1011100024BF624639464EEB0E0E4FF0000B00180E
:10112000524149414BEB0B0BB2EB080C71EB03073F
:101130007BF1000B24BF624639464EEB0E0E4FF09A
:10114000000B0018524149414BEB0B0BB2EB080C62
:1011500071EB03077BF1000B24BF624639464EEB6F
:101160000E0E51EA020718BF46F0010616EB0E7686
:1011700055F1000254F1000103D5BDE88901BDE835
:101180000088BDE88901BDE80048B619524141EB2D
:101190000101A3F10103704780807F7E7D7C7B7A13
:1011A0007978777676757473727171706F6E6E6D13
:1011B0006C6C6B6A6A6968686766666564646363B9
:1011C00062616160605F5F5E5E5D5D5C5C5B5B5A3F
:1011D0005A595958585757565655555554545353AC
:1011E00052525251515050504F4F4F4E4E4D4D4D07
:1011F0004C4C4C4B4B4B4A4A4A4949494848484752
:10120000474747464646454545444444444343438F
:101210004342424242414141002B9C4630D4770038
:101220002BD01CB54FEA370703B44FF010004FF036
:101230001001BAF1000F06D0BCF1000FDCBF40F086
:10124000080040F008014FF000000FBCBDE810405E
:101250000BF1010BBBF1010F08BF5FEA170722BFBB
:1012600012F1010211F101014FF0004143F10003BD
:1012700000F0004043EA00007047F9D35708D0E778
:1012800046EA064613F1400F4FEA16461FDD13F1FA
:10129000200FDFBF16430A46002120335B42BED039
:1012A000C3F1200746EA064602FA07F74FEA164658
:1012B00046EA0706C3F1200722FA03F201FA07F70C
:1012C00021FA03F14FF0000342EA0702A7E746EADA
:1012D000020646EA06464FEA164646EA0106BCBF43
:1012E00046EA0646360C4FF000034FF000024FF07E
:1012F000000194E72DE9804C9A46934670B491E83A
:10130000380007C831EA400C48BF34EA430C03D523
:10131000FFF7E6FDFFF780FFF0BCBDE8008C2DE98C
:10132000804C9A46934670B491E8380007C810F094
:10133000804F08BF13F0804F03D100F005F8FFF78E
:101340006BFFF0BCBDE8008C20F07F4780EA030013
:1013500023F07F4C07EB0C03A3F57C5300F0004017
:10136000A3F1FE0392F0000F00F0B38095F0000FA0
:1013700000F077802DE901494FEA11404FEA144609
:1013800021EA004800FB06FC24EA064708FB06F6B3
:1013900007FB08F800FB07F718EB06484CEB164C68
:1013A0004FEA124B18EB07484FEA15464CEB174033
:1013B00022EA0B4E0BFB06FC25EA06470EFB06F65F
:1013C00007FB0EFE0BFB07F71EEB064E4CEB164C15
:1013D0004FF000061EEB074E4CEB174B18EB0B08BB
:1013E00040F1000018EB0E0B58EB000840F1000034
:1013F0008F1A4FF000013CBFC943661B14BFB5EB09
:10140000040C00213CBFC943F61B4FEA17444EEAC7
:101410008E0E27EA04454FEA1C4704FB07622CEABC
:10142000074C05FB07F70CFB05F604FB0CFC16EB61
:10143000074642EB174216EB0C4642EB1C421BEBF5
:10144000060658EB0202414146EA9E0601D5BDE878
:101450000189B619524141EB0101A3F10103BDE835
:1014600001894FEA14454FEA114724EA054621EA6B
:10147000074C05FB07F406FB07F70CFB06F105FB21
:101480000CFC11EB074144EB17444FEA124711EBF8
:101490000C4144EB1C4422EA074C05FB07F206FB17
:1014A00007F70CFB06F605FB0CFC16EB074642EBB8
:1014B000174216EB0C4642EB1C456A1854F100012A
:1014C00048BF7047B619524141EB0101A3F1010336
:1014D000704795F0000F37D04FEA11424FEA14479A
:1014E00021EA024624EA074C02FB07F106FB07F754
:1014F0000CFB06F402FB0CFC14EB074441EB174118
:101500004FEA154714EB0C4441EB1C4125EA074C0C
:1015100002FB07F506FB07F70CFB06F602FB0CFCCB
:1015200016EB074645EB174516EB0C4645EB1C4200
:10153000121951F1000148BF7047B619524141EBF1
:101540000101A3F1010370474FEA14454FEA114727
:1015500024EA054621EA074C05FB07F106FB07F7DD
:101560000CFB06F24FF0000605FB0CFC12EB0742E9
:1015700041EB174112EB0C4251EB1C4148BF704745
:10158000921841EB0101A3F1010370471C4909685E
:1015900001F0200109B31A494968C8B219490988FC
:1015A00001F40041C9B91749098801F4804161B1CA
:1015B0000A2803D00021134A118020E0114909882C
:1015C00041F400410F4A118019E00D2806D10D4960
:1015D000098841F480410B4A118010E009490988CB
:1015E000C1F30D01084A505406490988491C054AAF
:1015F000118011460988082901DD002111807047FA
:1016000000100140280000208800002000215CE03C
:10161000481D092290FBF2F302FB13002D4A105CD7
:10162000632851D1881D092290FBF2F302FB1300BD
:10163000284A105C6B2847D1C81D092290FBF2F3A1
:1016400002FB1300234A105C79283DD101F1080008
:10165000092290FBF2F302FB13001E4A105C66287D
:1016600032D1092091FBF0F200FB1210194A105CF4
:10167000194A1070481C092290FBF2F302FB130078
:10168000144A105C144A5070881C092290FBF2F333
:1016900002FB13000F4A105C0F4A9070C81C09220D
:1016A00090FBF2F302FB13000A4A105C0A4AD07066
:1016B000081D092290FBF2F302FB1300054A105C9F
:1016C000054A107101207047491C0929A0DB002040
:1016D000F9E70000880000201400002003B40198FE
:1016E0004100009850EAC12018BF04204A0D18BFDD
:1016F00040F0010040F2FF72B2EB515F08BF40F0D2
:101700000200012808BF052002B0704730380A28BF
:1017100001D2012070470020704700BF704710B50C
:1017200000F008FF10BD70B505460C46164606E0F1
:1017300028466A1C95B200F008F804F8010B301E28
:10174000A6F101018EB2F3D170BD70B5044600263A
:1017500000F084FF2112A02202EB4101C8B200F088
:1017600057FF00F0B3FF2546E11704EB11610912A2
:10177000A4EB0121C8B200F04BFF00F0A7FF00F07E
:101780006DFFA12000F044FF00F0A0FF002000F05A
:1017900015FF064600F080FF304670BD70B5054667
:1017A0000C46164606E02178284600F009F8681C29
:1017B00085B2641C301EA6F101018EB2F3D170BD5A
:1017C00070B504460E4600F049FF2112A02202EB3C
:1017D0004101C8B200F01CFF00F078FF2546E11778
:1017E00004EB11610912A4EB0121C8B200F010FF53
:1017F00000F06CFF304600F00BFF00F067FF00F0D8
:101800004BFF0A2000F05CF970BD3EB50446A0898C
:1018100080B25C222169CDE90021029023899AB22D
:10182000A38899B2238898B24FF4207304F022FB66
:101830003EBD000010B5002208210D4805F064FCF3
:1018400000F01AF8012240210A4805F05DFC00F082
:1018500013F800224021074805F056FC00F00CF870
:1018600001220821024805F04FFC00F005F810BDE8
:1018700000200240001C024010B5022000F02AF9AE
:1018800010BD00001CB500BF1148006840F080008A
:101890000F49086000BF00BF0846006840F4807030
:1018A000086000BF012000900346024640210190DD
:1018B000084805F035FC0120009003460246082147
:1018C0000190054805F02CFC00F098F81CBD0000C4
:1018D00030380240001C02400020024010B50122B6
:1018E00008210A4805F010FCFFF7C6FF012240213D
:1018F000074805F009FCFFF7BFFF0022402104481C
:1019000005F002FCFFF7B8FF10BD00000020024008
:10191000001C024070B505460024002618E0600651
:10192000040E012240210F4805F0EEFBFFF7A4FF53
:1019300008210D4805F0E0FB08B1601CC4B200228C
:101940004021084805F0E0FBFFF796FF701CC6B287
:10195000082EE4DB15B9FFF7C1FF01E0FFF76AFFCE
:10196000204670BD001C02400020024070B50446B5
:10197000002516E0E20908210E4805F0C5FBFFF737
:101980007BFF012240210C4805F0BEFBFFF774FFEE
:1019900000224021084805F0B7FB6006040E681CD1
:1019A000C5B2082DE6DB01220821024805F0ACFB98
:1019B00070BD000000200240001C024010B5012252
:1019C00008210C4805F0A0FB012240210A4805F03F
:1019D0009BFBFFF751FF00220821064805F094FB0E
:1019E000FFF74AFF00224021034805F08DFBFFF777
:1019F00043FF10BD00200240001C024010B5002231
:101A000008210A4805F080FBFFF736FF012240213C
:101A1000074805F079FBFFF72FFF01220821034853
:101A200005F072FBFFF728FF10BD00000020024008
:101A3000001C024070B50024002501220821134833
:101A400005F062FBFFF718FF01224021104805F066
:101A50005BFBFFF711FF09E0601CC4B2FA2C03DD49
:101A6000FFF7CCFF012507E0FFF706FF0821074835
:101A700005F042FB0028EFD100BF002240210448BE
:101A800005F042FBFFF7F8FE284670BD002002403B
:101A9000001C02404FF0E021096941F004014FF0C1
:101AA000E0221161054908601146096941F0010110
:101AB00011616FF0704151617047000020000020FB
:101AC00010B504464FF47A7104FB01F000F002F8FF
:101AD00010BD000070B5034600224FF0E026756986
:101AE0000D4E366803FB06F44FF0E026B16910E0B6
:101AF0004FF0E026B06988420BD0884202D20E1A1D
:101B0000324402E02E1A0E4432440146A24200D36F
:101B100000E0EDE700BF70BD200000202DE9FC5F74
:101B200080460C4691469A46DDF830B02046E117D3
:101B300004EB5171CC10002621E000251CE00027A9
:101B400017E006FB045018F80000802139410840D6
:101B500070B10BEBC500384401900D9830440090F3
:101B6000009A91B2019A90B2524600F0BFFF00BFB6
:101B70007F1C082FE5DB6D1CA542E0DB761C4E4583
:101B8000DBDBBDE8FC9F000000BF054A126802F0E5
:101B90004002002AF9D0C2B2014B5A6070470000DF
:101BA000001001400EB500BF3B48006840F4807053
:101BB0003949086000BF00BF0846006840F0800057
:101BC000086000BF0120009000230246010201903E
:101BD000324805F0A5FA0120009000231A46802122
:101BE00001902F4805F09CFAFFF74CFE00224FF4BD
:101BF00080712A4805F088FA1420FFF761FF01225E
:101C00001102264805F080FA3220FFF759FF002024
:101C10008DF80800012202A900F048F9012202A96A
:101C2000A42000F043F916208DF80800012202A933
:101C3000802000F03BF90C208DF80800012202A959
:101C4000882000F033F9022202A9A12000F030F828
:101C50009DF80800302803D19DF8090003280DD015
:101C60009DF80900012809D09DF80900022805D037
:101C70009DF8080068B99DF8090050B99DF8090061
:101C80009DF8082000EB022106A0FEF719FB0020BA
:101C90000EBD0120FCE70000303802400020024069
:101CA000001C02404354502049443A25780D0A0054
:101CB0002DE9F04106460F461546FFF77FFE7020DE
:101CC000FFF754FEFFF7B6FEF0B2FFF74FFEFFF747
:101CD000B1FEFFF773FE7120FFF748FEFFF7AAFE83
:101CE00000240BE0691EA14201D0012100E0002187
:101CF0000846FFF70FFE3855601CC4B2AC42F1DB5A
:101D0000FFF77CFEBDE8F0812DE9FC41074600208D
:101D100001900024002661480078401C5F4908704B
:101D2000084600780A2190FBF1F201FB120018B17D
:101D30005A4800780A2867DA012201A90220FFF731
:101D4000B7FF9DF8040000F00F0000285CD09DF85C
:101D5000040000F00F0006287BDA9DF8040000F074
:101D60000F014FF6FF70884085B2E84380B240F41F
:101D700040404B4988860420FFF7A2FE00245AE029
:101D80004748808E0121A1400840E0B3454931F821
:101D9000140004226946FFF78BFF414890F8440085
:101DA00000F00100C0B19DF801009DF8001001F0A5
:101DB0000F0100EB01203A49203121F814009DF871
:101DC00003009DF8021001F00F0100EB01213448DF
:101DD0000C3020F814101EE09DF801009DF8001052
:101DE00001F00F0100EB01202F490988081A81B288
:101DF0002B480C3020F814109DF803009DF80210B9
:101E000001F00F0101E014E023E000EB0120244980
:101E1000203121F814009DF8000000F0F000802827
:101E200007D000211E48203020F81410143820F864
:101E30001410601CC4B2052CA2DB0126184880894E
:101E400020B91748008C08B90020019000201349E0
:101E500008709DF8040000F01F00A8B91048808E9B
:101E600000F4004030B10E48808E20F400400C4950
:101E7000888609E04FF6FF70094988810884084682
:101E8000808E00F46040888604480078F02802DDE7
:101E90000A20024908703046BDE8FC813C00002061
:101EA00040000020F6230108920000202DE9F041B7
:101EB00005460E4617464FF00008FFF77FFD7020DD
:101EC000FFF754FDFFF7B6FDE8B2FFF74FFDFFF750
:101ED000B1FD00240BE0305DFFF748FDFFF7AAFDE0
:101EE0008046B8F1000F00D003E0601CC4B2BC42D1
:101EF000F1DB00BFFFF782FD4046BDE8F081000046
:101F00001FB500BF4148006840F480703F49086039
:101F100000BF00BF0846006840F08000086000BFB6
:101F2000012000900023024601020190384805F08C
:101F3000F7F80120009000231A46802101903548CF
:101F400005F0EEF8FFF79EFC00224FF48071304858
:101F500005F0DAF80A20FFF7B3FD012211022C4840
:101F600005F0D2F80A20FFF7ABFD0020012103465F
:101F70000246CDE900108021264805F0D1F8642002
:101F8000FFF79EFD042202A948F2401000F05AF823
:101F900000208DF80C0020A102A8FEF70BFB88B1F1
:101FA0001EA102A8FEF706FB60B11EA102A8FEF763
:101FB00001FB38B11DA102A8FEF7FCFA10B1012007
:101FC00004B010BD02A91BA0FEF77AF917A102A860
:101FD000FEF7F0FA10B90A201949087002208DF8AE
:101FE0000800012202A948F2400000F04FFA0A203E
:101FF000FFF766FD00208DF80800012202A948F2D3
:10200000400000F043FA0020DAE7000030380240D8
:1020100000200240001C0240393131003931343790
:10202000000000003131353800000000393237310E
:10203000000000004354502049443A25730D0A0023
:102040003D0000202DE9F04105460F461646FFF7FA
:10205000B5FC2820FFF78AFCFFF7ECFC2812FFF7FD
:1020600085FCFFF7E7FCE8B2FFF780FCFFF7E2FC36
:10207000FFF7A4FC2920FFF779FCFFF7DBFC002425
:102080000BE0711EA14201D0012100E000210846B1
:10209000FFF740FC3855601CC4B2B442F1DBFFF7D7
:1020A000ADFCBDE8F081000071B52DED048B83B06F
:1020B000002001900026EC480078401CEA49087096
:1020C000084600780A2190FBF1F201FB120018B1DA
:1020D000E54800780A287DDA012207A948F24E1067
:1020E000FFF7B0FF9DF81C0000F0800078B19DF86C
:1020F0001C0000F00F00DD490978884207DC002051
:102100000190012201A948F24E1000F0BFF99DF89C
:102110001C0000F00F0000285CD09DF81C0000F0AF
:102120000F00D2490978884254DC9DF81C0000F069
:102130000F014FF6FF70884084B2CD48858EE04392
:1021400080B240F44040CA49888608468289C74820
:102150000078401E0C3121F81020C548028CC3487D
:102160000078401E143121F810200020019014E165
:10217000BF48808E9DF8042001219140084000282E
:102180003FD0BC499DF8042031F81200042202A976
:10219000FFF758FFB848808845F2105188420BD0AD
:1021A000B548808849F60601884205D0B248808843
:1021B00047F29671884240D1AD4890F8440000F053
:1021C0000100F8B19DF80A009DF80B1000EB01200A
:1021D000A94900E01FE10988081A81B2A4480C301F
:1021E0009DF8042020F812109DF808009DF80910B1
:1021F00000EB012081B29E4820309DF8042020F899
:102200001210C5E09DF808009DF8091000EB0120B0
:1022100081B297480C309DF8042020F812109DF8E8
:102220000A009DF80B1000EB012081B2904820308D
:102230009DF8042020F81210AAE08D4890F8440080
:1022400000F00100E8B39DF808009DF8091000EBCC
:10225000012081B286480C309DF8042020F812102D
:102260009DF80A009DF80B1000EB012081B2804818
:1022700020309DF8042020F81210A0F114019DF8E0
:10228000042031F8120006F0CBF841EC190B9FED59
:102290007B0B53EC102B05F027FF41EC180B06F0DD
:1022A0007BF881B272480C309DF8042020F812109F
:1022B00000F114019DF8042031F8120006F0B0F886
:1022C00000E013E041EC190B9FED6E0B53EC102B6B
:1022D00005F00AFF41EC180B06F05EF881B2644885
:1022E00020309DF8042020F8121051E09DF80A00DB
:1022F0009DF80B1000EB0120C0F5167081B25C4810
:102300000C309DF8042020F812109DF808009DF86C
:10231000091000EB012081B2554820309DF80420BF
:1023200020F81210A0F114019DF8042031F81200D9
:1023300006F076F841EC190B9FED520B53EC102B85
:1023400005F0D2FE41EC180B06F026F881B24848A1
:102350000C309DF8042020F8121000F114019DF8B3
:10236000042031F8120006F05BF841EC190B9FEDE8
:10237000430B53EC102B05F0B7FE41EC180B06F0A5
:102380000BF881B23A4820309DF8042020F8121052
:102390009DF80400401CC0B201909DF80400334930
:1023A00009788842FFF6E4AE012631488089324937
:1023B0000988884205DC2E48008C2F4949888842CC
:1023C00026DD9DF81C0000F00F0001280ADD2848DA
:1023D000C089274988810846408C0884002022490A
:1023E000087018E021480078401E21490C3131F86E
:1023F00010000C3988811D480078401E203131F8CA
:10240000100020390884802007900846858602E065
:102410000020154908709DF81C0000F08F008028EE
:1024200015D11348808E00F4004030B11048808EE2
:1024300020F400400E49888609E04FF6FF700C49F1
:10244000888108840846808E00F4604088860648AB
:102450000078F02802DD0A2003490870304603B0F6
:10246000BDEC048B78BD00003E0000203D00002044
:102470004000002000240108920000207B14AE4799
:10248000E17AF43F000000000000F43F2DE9F04144
:1024900004460E4617464FF00008FFF78FFA282033
:1024A000FFF764FAFFF7C6FA2012FFF75FFAFFF7AB
:1024B000C1FAE0B2FFF75AFAFFF7BCFA00250BE0C9
:1024C000705DFFF753FAFFF7B5FA8046B8F1000FD9
:1024D00000D003E0681CC5B2BD42F1DB00BFFFF7CE
:1024E0008DFA4046BDE8F08110B5002220210D484C
:1024F00004F00AFE00F018F801221021094804F047
:1025000003FE00F011F800221021064804F0FCFD43
:1025100000F00AF801222021024804F0F5FD00F045
:1025200003F810BD001C024010B50220FFF7D2FADC
:1025300010BD00001CB500BF1148006840F08000CD
:102540000F49086000BF00BF0846006840F08000E7
:10255000086000BF01200090002302461021019076
:10256000084804F0DDFD01200090034602462021CA
:102570000190044804F0D4FD00F08EF81CBD00006A
:1025800030380240001C024010B5012220210A48C8
:1025900004F0BAFDFFF7C8FF01221021064804F03D
:1025A000B3FDFFF7C1FF00221021034804F0ACFD8A
:1025B000FFF7BAFF10BD0000001C024070B50546D1
:1025C0000024002618E06006040E012210210F48A6
:1025D00004F09AFDFFF7A8FF20210C4804F08CFDC1
:1025E00008B1601CC4B200221021084804F08CFD20
:1025F000FFF79AFF701CC6B2082EE4DB15B9FFF78F
:10260000C3FF01E0FFF770FF204670BD001C0240D1
:1026100070B50446002516E0E20920210E4804F0BA
:1026200073FDFFF781FF012210210B4804F06CFDC0
:10263000FFF77AFF00221021074804F065FD6006CD
:10264000040E681CC5B2082DE6DB012220210248D9
:1026500004F05AFD70BD0000001C024010B50122BC
:1026600020210C4804F050FD01221021094804F0FB
:102670004BFDFFF759FF00222021064804F044FDDE
:10268000FFF752FF00221021024804F03DFDFFF742
:102690004BFF10BD001C024010B5002220210A484B
:1026A00004F032FDFFF740FF01221021064804F03C
:1026B0002BFDFFF739FF01222021034804F024FD00
:1026C000FFF732FF10BD0000001C024070B500246F
:1026D000002501222021124804F016FDFFF724FFF7
:1026E000012210210E4804F00FFDFFF71DFF07E047
:1026F000601CC4B2FA2C03DDFFF7CEFF012505E014
:102700002021074804F0F8FC0028F1D100BF002286
:102710001021034804F0F8FCFFF706FF284670BDBF
:10272000001C02401CB500BF2048006840F080003B
:102730001E49086000BF00BF0846006840F08000E6
:10274000086000BF00BF0846006840F00400086051
:1027500000BF00BF0846006840F00100086000BFED
:102760000120009000231A4608210190104804F02F
:10277000D7FC0120009000231A46042101900C4848
:1027800004F0CEFC0120009000231A464103019082
:10279000084804F0C5FC0220012100231A46CDE9B7
:1027A0000010054804F0BCFC1CBD0000303802409D
:1027B000001C0240000802400000024070B50446C0
:1027C00000260D4805880D48006818B1204603F022
:1027D00013FC0FE00848408845430021084603F0F9
:1027E00019FA03F0C5FB002602E005480480761CB8
:1027F000AE42FAD370BD000092000020A00000207D
:102800000000086010B504466048847160480068A4
:1028100050B1204603F04EFC5D48C08A5B490880F9
:102820005B48008B488010BD002C58D1F0205749E0
:1028300008804FF4A07048800846808845F2105107
:10284000884210D14FF43050504908814FF428503D
:1028500048814FF42C5088814FF4F07008804FF479
:10286000487048801AE04948808841F663118842E0
:102870000DD12C20454908812B2048812A208881B0
:102880004FF4F07008804FF44870488006E02C2028
:102890003E4908812A2048812B2088813B48808836
:1028A00045F21031884205D03848808847F2967149
:1028B000884206D14FF4A070344908804FF4F0707C
:1028C00048803248808849F60601884258D14FF442
:1028D000F0702E4908804FF44870488050E04FF463
:1028E000A0702A490880F02048800846808845F278
:1028F0001051884210D14FF43050244908814FF4D0
:10290000285048814FF42C5088814FF4487008803B
:102910004FF4F070488020E01C48808841F6631135
:10292000884205D01948808849F6060188420DD1B1
:102930002C20164908812A2048812B2088814FF4B9
:10294000487008804FF4F070488006E02C200F4952
:1029500008812A2048812B2088810C48808845F2F4
:102960001031884205D00948808847F29671884224
:1029700006D14FF4F070054908804FF4A0704880EC
:10298000002003F029F800BF4DE70000920000206E
:10299000A00000202DE9F04706460F4690469A46D3
:1029A000002445460320A0EB480944E07A1B91B27D
:1029B000321990B2524600F099F83A1B91B272194E
:1029C00090B2524600F092F83A1991B2721990B250
:1029D000524600F08BF87A1991B2321990B25246F1
:1029E00000F084F87A1991B2321B90B2524600F08E
:1029F0007DF83A1991B2721B90B2524600F076F807
:102A00007A1B91B2321B90B2524600F06FF83A1B1B
:102A100091B2721B90B2524600F068F8641CB9F192
:102A2000000F03DAA000801D814404E0601B8000D9
:102A30000A3081446D1EAC42B8DDBDE8F0872DE957
:102A4000FF4F85B081468A46002003908346079851
:102A5000A0EB09050898A0EB0A06CDF80890CDF880
:102A600004A0002D01DD012705E00DB9002702E0DB
:102A70004FF0FF376D42002E02DD4FF0010806E0F7
:102A800016B94FF0000802E04FF0FF387642B54229
:102A900001DD2C4600E03446002004901EE0019A3F
:102AA00091B2029A90B2129A00F020F8039828444A
:102AB0000390B3440398A04205DD0398001B0390E4
:102AC000029838440290A34504DDABEB040B019857
:102AD000404401900498401C80B20490611C04980A
:102AE0008842DCDD09B0BDE8F08F000070B5054616
:102AF0000E4614460848006828B12246314628464A
:102B000003F0EEFA07E03146284603F083F803F0BD
:102B10002FFA02490C8070BDA00000200000086060
:102B200010B5CF2003F018FA002003F009FAC120F5
:102B300003F006FA302003F003FAED2003F00CFA5C
:102B4000642003F0FDF9032003F0FAF9122003F0EA
:102B5000F7F9812003F0F4F9E82003F0FDF985206E
:102B600003F0EEF9102003F0EBF97A2003F0E8F916
:102B7000CB2003F0F1F9392003F0E2F92C2003F027
:102B8000DFF9002003F0DCF9342003F0D9F902204A
:102B900003F0D6F9F72003F0DFF9202003F0D0F995
:102BA000EA2003F0D9F9002003F0CAF9002003F06D
:102BB000C7F9C02003F0D0F91B2003F0C1F9C120F0
:102BC00003F0CAF9012003F0BBF9C52003F0C4F9F2
:102BD000302003F0B5F9302003F0B2F9C72003F03C
:102BE000BBF9B72003F0ACF9362003F0B5F9482063
:102BF00003F0A6F93A2003F0AFF9552003F0A0F94D
:102C0000B12003F0A9F9002003F09AF91A2003F08B
:102C100097F9B62003F0A0F90A2003F091F9A22059
:102C200003F08EF9F22003F097F9002003F088F901
:102C3000262003F091F9012003F082F9E02003F04F
:102C40008BF90F2003F07CF92A2003F079F9282072
:102C500003F076F9082003F073F90E2003F070F901
:102C6000082003F06DF9542003F06AF9A92003F05D
:102C700067F9432003F064F90A2003F061F90F209B
:102C800003F05EF9002003F05BF9002003F058F92F
:102C9000002003F055F9002003F052F9E12003F081
:102CA0005BF9002003F04CF9152003F049F91720D7
:102CB00003F046F9072003F043F9112003F040F92F
:102CC000062003F03DF92B2003F03AF9562003F0DB
:102CD00037F93C2003F034F9052003F031F91020D6
:102CE00003F02EF90F2003F02BF93F2003F028F911
:102CF0003F2003F025F90F2003F022F92B2003F0E9
:102D00002BF9002003F01CF9002003F019F9012031
:102D100003F016F93F2003F013F92A2003F01CF901
:102D2000002003F00DF9002003F00AF9002003F061
:102D300007F9EF2003F004F9112003F00DF97820D2
:102D4000FEF7BEFE292003F007F910BD10B5FF20E5
:102D500003F002F9FF2003F0F3F8982003F0F0F8F5
:102D6000062003F0EDF8BC2003F0F6F8012003F094
:102D7000E7F80F2003F0E4F8612003F0E1F8FF200A
:102D800003F0DEF8012003F0DBF8012003F0D8F8AF
:102D90000B2003F0D5F8102003F0D2F8372003F011
:102DA000CFF8632003F0CCF8FF2003F0C9F8FF2030
:102DB00003F0C6F8012003F0C3F8012003F0C0F8C7
:102DC000002003F0BDF8002003F0BAF8FF2003F064
:102DD000B7F8522003F0B4F8012003F0B1F8002056
:102DE00003F0AEF8402003F0ABF8BD2003F0B4F8D8
:102DF000012003F0A5F8232003F0A2F8452003F0FA
:102E00009FF8672003F09CF8012003F099F8232035
:102E100003F096F8452003F093F8672003F090F84C
:102E2000BE2003F099F8002003F08AF8012003F097
:102E300087F8AB2003F084F8602003F081F82220AB
:102E400003F07EF8222003F07BF8222003F078F8CC
:102E5000222003F075F8222003F072F8C72003F057
:102E60007BF8362003F06CF8ED2003F075F87F2036
:102E700003F066F80F2003F063F8C02003F06CF84D
:102E80000F2003F05DF80B2003F05AF80A2003F03E
:102E900057F8FC2003F060F8082003F051F8DF2019
:102EA00003F05AF8002003F04BF8002003F048F834
:102EB000002003F045F8002003F042F8002003F062
:102EC0003FF8202003F03CF8F32003F045F874208D
:102ED00003F036F8B42003F03FF8002003F030F898
:102EE000002003F02DF8002003F02AF8F72003F06B
:102EF00033F8822003F024F8B12003F02DF80020ED
:102F000003F01EF8132003F01BF8132003F018F849
:102F1000F22003F021F8802003F012F8042003F0DF
:102F20000FF8402003F00CF8282003F009F8C12026
:102F300003F012F8172003F003F8882003F000F8DC
:102F4000882002F0FDFF202002F0FAFFE02003F0CD
:102F500003F8002002F0F4FF0A2002F0F1FF122033
:102F600002F0EEFF102002F0EBFF0E2002F0E8FF6F
:102F7000202002F0E5FFCC2002F0E2FF072002F063
:102F8000DFFF062002F0DCFF0B2002F0D9FF0E204D
:102F900002F0D6FF0F2002F0D3FF0D2002F0D0FF89
:102FA000152002F0CDFF102002F0CAFF002002F031
:102FB000C7FFE12002F0D0FF002002F0C1FF0B208C
:102FC00002F0BEFF132002F0BBFF0D2002F0B8FF9D
:102FD0000E2002F0B5FF1B2002F0B2FF712002F0BC
:102FE000AFFF062002F0ACFF062002F0A9FF0A2086
:102FF00002F0A6FF0F2002F0A3FF0E2002F0A0FFB8
:103000000F2002F09DFF152002F09AFF0C2002F025
:1030100097FF002002F094FF2A2002F09DFF00207D
:1030200002F08EFF002002F08BFF012002F088FFEB
:10303000DF2002F085FF2B2002F08EFF002002F03F
:103040007FFF002002F07CFF032002F079FF1F20A9
:1030500002F076FF3A2002F07FFF552002F070FF69
:10306000362002F079FF002002F06AFF112002F002
:1030700073FF7820FEF724FD292002F06DFF142055
:10308000FEF71EFD2C2002F067FF10BD10B5ED20ED
:1030900002F062FF012002F053FFFE2002F050FF19
:1030A000EE2002F059FFDE2002F04AFF212002F05C
:1030B00047FFF12002F050FF012002F041FFDF2026
:1030C00002F04AFF102002F03BFFC42002F044FF50
:1030D0008F2002F035FFC62002F03EFF002002F0F4
:1030E0002FFFE22002F02CFFE22002F029FFE22075
:1030F00002F026FFBF2002F02FFFAA2002F020FFDF
:10310000B02002F029FF0D2002F01AFF002002F08B
:1031100017FF0D2002F014FF002002F011FF112014
:1031200002F00EFF002002F00BFF192002F008FF52
:10313000002002F005FF212002F002FF002002F033
:10314000FFFE2D2002F0FCFE002002F0F9FE3D20E3
:1031500002F0F6FE002002F0F3FE5D2002F0F0FE29
:10316000002002F0EDFE5D2002F0EAFE002002F0F9
:10317000E7FEB12002F0F0FE802002F0E1FE002028
:1031800002F0DEFE8B2002F0DBFE002002F0D8FE13
:10319000962002F0D5FE002002F0D2FEB22002F00E
:1031A000DBFE002002F0CCFE002002F0C9FE02206F
:1031B00002F0C6FE002002F0C3FE032002F0C0FEB3
:1031C000002002F0BDFEB32002F0C6FE002002F097
:1031D000B7FE002002F0B4FE002002F0B1FE002095
:1031E00002F0AEFE002002F0ABFE002002F0A8FECE
:1031F000002002F0A5FE002002F0A2FE002002F056
:103200009FFE002002F09CFE002002F099FE0020AC
:1032100002F096FE002002F093FE002002F090FEE5
:10322000002002F08DFE002002F08AFE002002F055
:1032300087FE002002F084FE002002F081FE0020C4
:1032400002F07EFE002002F07BFE002002F078FEFD
:10325000002002F075FE002002F072FEB42002F0A1
:103260007BFE8B2002F06CFE002002F069FE9620AF
:1032700002F066FE002002F063FEA12002F060FE74
:10328000002002F05DFEB52002F066FE022002F092
:1032900057FE002002F054FE032002F051FE0020F1
:1032A00002F04EFE042002F04BFE002002F048FE29
:1032B000B62002F051FE002002F042FE002002F093
:1032C0003FFEB72002F048FE002002F039FE002049
:1032D00002F036FE3F2002F033FE002002F030FE06
:1032E0005E2002F02DFE002002F02AFE642002F093
:1032F00027FE002002F024FE8C2002F021FE002098
:1033000002F01EFEAC2002F01BFE002002F018FEB0
:10331000DC2002F015FE002002F012FE702002F008
:103320000FFE002002F00CFE902002F009FE0020AB
:1033300002F006FEEB2002F003FE002002F000FE89
:10334000DC2002F0FDFD002002F0FAFDB82002F0C2
:1033500003FE002002F0F4FD002002F0F1FD002049
:1033600002F0EEFD002002F0EBFD002002F0E8FD8F
:10337000002002F0E5FD002002F0E2FD002002F056
:10338000DFFDBA2002F0E8FD242002F0D9FD002084
:1033900002F0D6FD002002F0D3FD002002F0D0FDA7
:1033A000C12002F0D9FD202002F0CAFD002002F069
:1033B000C7FD542002F0C4FD002002F0C1FDFF2033
:1033C00002F0BEFD002002F0BBFDC22002F0C4FDF1
:1033D0000A2002F0B5FD002002F0B2FD042002F048
:1033E000AFFD002002F0ACFDC32002F0B5FD3C2093
:1033F00002F0A6FD002002F0A3FD3A2002F0A0FD9D
:10340000002002F09DFD392002F09AFD002002F01C
:1034100097FD372002F094FD002002F091FD3C2042
:1034200002F08EFD002002F08BFD362002F088FDB8
:10343000002002F085FD322002F082FD002002F023
:103440007FFD2F2002F07CFD002002F079FD2C2072
:1034500002F076FD002002F073FD292002F070FDDD
:10346000002002F06DFD262002F06AFD002002F02F
:1034700067FD242002F064FD002002F061FD24209D
:1034800002F05EFD002002F05BFD232002F058FDFB
:10349000002002F055FD3C2002F052FD002002F019
:1034A0004FFD362002F04CFD002002F049FD322095
:1034B00002F046FD002002F043FD2F2002F040FD07
:1034C000002002F03DFD2C2002F03AFD002002F029
:1034D00037FD292002F034FD002002F031FD2620C6
:1034E00002F02EFD002002F02BFD242002F028FD2A
:1034F000002002F025FD242002F022FD002002F031
:103500001FFD232002F01CFD002002F019FDC42045
:1035100002F022FD622002F013FD002002F010FDF7
:10352000052002F00DFD002002F00AFD842002F0CB
:1035300007FD002002F004FDF02002F001FD002054
:1035400002F0FEFC182002F0FBFC002002F0F8FC68
:10355000A42002F0F5FC002002F0F2FC182002F09A
:10356000EFFC002002F0ECFC502002F0E9FC00200F
:1035700002F0E6FC0C2002F0E3FC002002F0E0FC8C
:10358000172002F0DDFC002002F0DAFC952002F0AA
:10359000D7FC002002F0D4FCF32002F0D1FC002084
:1035A00002F0CEFCE62002F0CBFC002002F0C8FCCA
:1035B000C52002F0D1FC322002F0C2FC002002F053
:1035C000BFFC442002F0BCFC002002F0B9FC6520E6
:1035D00002F0B6FC002002F0B3FC762002F0B0FC52
:1035E000002002F0ADFC882002F0AAFC002002F0CE
:1035F000A7FCC62002F0B0FC202002F0A1FC0020B5
:1036000002F09EFC172002F09BFC002002F098FCC8
:10361000012002F095FC002002F092FCC72002F08D
:103620009BFC002002F08CFC002002F089FC0020B2
:1036300002F086FC002002F083FCC82002F08CFC23
:10364000002002F07DFC002002F07AFC002002F055
:1036500077FC002002F074FCC92002F07DFC002001
:1036600002F06EFC002002F06BFC002002F068FC0F
:10367000002002F065FC002002F062FC002002F055
:103680005FFC002002F05CFC002002F059FC0020EE
:1036900002F056FC002002F053FC002002F050FC27
:1036A000002002F04DFC002002F04AFC002002F055
:1036B00047FC002002F044FC002002F041FCE02026
:1036C00002F04AFC162002F03BFC002002F038FC1D
:1036D0001C2002F035FC002002F032FC212002F018
:1036E0002FFC002002F02CFC362002F029FC0020E8
:1036F00002F026FC462002F023FC002002F020FC11
:10370000522002F01DFC002002F01AFC642002F09E
:1037100017FC002002F014FC7A2002F011FC0020BB
:1037200002F00EFC8B2002F00BFC002002F008FCE3
:10373000992002F005FC002002F002FCA82002F013
:10374000FFFB002002F0FCFBB92002F0F9FB002097
:1037500002F0F6FBC42002F0F3FB002002F0F0FBC5
:10376000CA2002F0EDFB002002F0EAFBD22002F0BA
:10377000E7FB002002F0E4FBD92002F0E1FB00208F
:1037800002F0DEFBE02002F0DBFB002002F0D8FBC1
:10379000F32002F0D5FB002002F0D2FBE12002F082
:1037A000DBFB162002F0CCFB002002F0C9FB1C2042
:1037B00002F0C6FB002002F0C3FB222002F0C0FB97
:1037C000002002F0BDFB362002F0BAFB002002F020
:1037D000B7FB452002F0B4FB002002F0B1FB522001
:1037E00002F0AEFB002002F0ABFB642002F0A8FB6D
:1037F000002002F0A5FB7A2002F0A2FB002002F0DC
:103800009FFB8B2002F09CFB002002F099FB99208B
:1038100002F096FB002002F093FBA82002F090FB40
:10382000002002F08DFBB92002F08AFB002002F09C
:1038300087FBC42002F084FB002002F081FBCA2039
:1038400002F07EFB002002F07BFBD22002F078FB2E
:10385000002002F075FBD82002F072FB002002F07D
:103860006FFBE02002F06CFB002002F069FBF3200C
:1038700002F066FB002002F063FBE22002F06CFB2A
:10388000052002F05DFB002002F05AFB0B2002F045
:1038900057FB002002F054FB1B2002F051FB0020DC
:1038A00002F04EFB342002F04BFB002002F048FBFC
:1038B000442002F045FB002002F042FB4F2002F0C2
:1038C0003FFB002002F03CFB612002F039FB0020AE
:1038D00002F036FB792002F033FB002002F030FBCF
:1038E000882002F02DFB002002F02AFB972002F036
:1038F00027FB002002F024FBA62002F021FB002081
:1039000002F01EFBB72002F01BFB002002F018FBA8
:10391000C22002F015FB002002F012FBC72002F0CB
:103920000FFB002002F00CFBD12002F009FB00206D
:1039300002F006FBD62002F003FB002002F000FBA1
:10394000DD2002F0FDFA002002F0FAFAF32002F086
:10395000F7FA002002F0F4FAE32002F0FDFA052065
:1039600002F0EEFA002002F0EBFA0A2002F0E8FA88
:10397000002002F0E5FA1C2002F0E2FA002002F03A
:10398000DFFA332002F0DCFA002002F0D9FA4420FA
:1039900002F0D6FA002002F0D3FA502002F0D0FA5A
:1039A000002002F0CDFA622002F0CAFA002002F0F4
:1039B000C7FA782002F0C4FA002002F0C1FA882089
:1039C00002F0BEFA002002F0BBFA972002F0B8FA2B
:1039D000002002F0B5FAA62002F0B2FA002002F0B0
:1039E000AFFAB72002F0ACFA002002F0A9FAC22028
:1039F00002F0A6FA002002F0A3FAC72002F0A0FA13
:103A0000002002F09DFAD12002F09AFA002002F084
:103A100097FAD52002F094FA002002F091FADD2006
:103A200002F08EFA002002F08BFAF32002F088FAFE
:103A3000002002F085FAE42002F08EFA012002F064
:103A40007FFA002002F07CFA012002F079FA0020CF
:103A500002F076FA022002F073FA002002F070FA07
:103A60002A2002F06DFA002002F06AFA3C2002F0EF
:103A700067FA002002F064FA4B2002F061FA00209D
:103A800002F05EFA5D2002F05BFA002002F058FAC4
:103A9000742002F055FA002002F052FA842002F05D
:103AA0004FFA002002F04CFA932002F049FA00206D
:103AB00002F046FAA22002F043FA002002F040FA97
:103AC000B32002F03DFA002002F03AFABE2002F0E4
:103AD00037FA002002F034FAC42002F031FA002054
:103AE00002F02EFACD2002F02BFA002002F028FA84
:103AF000D32002F025FA002002F022FADD2002F0A5
:103B00001FFA002002F01CFAF32002F019FA00203C
:103B100002F016FAE52002F01FFA002002F010FA77
:103B2000002002F00DFA002002F00AFA002002F054
:103B300007FA022002F004FA002002F001FA29201C
:103B400002F0FEF9002002F0FBF93C2002F0F8F947
:103B5000002002F0F5F94B2002F0F2F9002002F00B
:103B6000EFF95D2002F0ECF9002002F0E9F9742091
:103B700002F0E6F9002002F0E3F9842002F0E0F917
:103B8000002002F0DDF9932002F0DAF9002002F0C3
:103B9000D7F9A22002F0D4F9002002F0D1F9B32025
:103BA00002F0CEF9002002F0CBF9BE2002F0C8F9F5
:103BB000002002F0C5F9C42002F0C2F9002002F092
:103BC000BFF9CD2002F0BCF9002002F0B9F9D320F2
:103BD00002F0B6F9002002F0B3F9DC2002F0B0F9EF
:103BE000002002F0ADF9F32002F0AAF9002002F063
:103BF000A7F9E62002F0B0F9112002F0A1F90020A7
:103C000002F09EF9342002F09BF9002002F098F9AE
:103C1000562002F095F9002002F092F9762002F089
:103C20008FF9002002F08CF9772002F089F900204A
:103C300002F086F9662002F083F9002002F080F994
:103C4000882002F07DF9002002F07AF9992002F034
:103C500077F9002002F074F9BB2002F071F900201E
:103C600002F06EF9992002F06BF9002002F068F979
:103C7000662002F065F9002002F062F9552002F09A
:103C80005FF9002002F05CF9552002F059F900209C
:103C900002F056F9452002F053F9002002F050F9E5
:103CA000432002F04DF9002002F04AF9442002F0CE
:103CB00047F9002002F044F9E72002F04DF93220E4
:103CC00002F03EF9002002F03BF9552002F038F9ED
:103CD000002002F035F9762002F032F9002002F0DF
:103CE0002FF9662002F02CF9002002F029F9672054
:103CF00002F026F9002002F023F9672002F020F9F3
:103D0000002002F01DF9872002F01AF9002002F0CD
:103D100017F9992002F014F9002002F011F9BB20E4
:103D200002F00EF9002002F00BF9992002F008F9D8
:103D3000002002F005F9772002F002F9002002F0DD
:103D4000FFF8442002F0FCF8002002F0F9F85620B9
:103D500002F0F6F8002002F0F3F8232002F0F0F869
:103D6000002002F0EDF8332002F0EAF8002002F023
:103D7000E7F8452002F0E4F8002002F0E1F8E8203E
:103D800002F0EAF8002002F0DBF8002002F0D8F898
:103D9000992002F0D5F8002002F0D2F8872002F036
:103DA000CFF8002002F0CCF8882002F0C9F80020FB
:103DB00002F0C6F8772002F0C3F8002002F0C0F845
:103DC000662002F0BDF8002002F0BAF8882002F068
:103DD000B7F8002002F0B4F8AA2002F0B1F80020F1
:103DE00002F0AEF8BB2002F0ABF8002002F0A8F819
:103DF000992002F0A5F8002002F0A2F8662002F057
:103E00009FF8002002F09CF8552002F099F800205D
:103E100002F096F8552002F093F8002002F090F896
:103E2000442002F08DF8002002F08AF8442002F0CD
:103E300087F8002002F084F8552002F081F8002075
:103E400002F07EF8E92002F087F8AA2002F078F864
:103E5000002002F075F8002002F072F8002002F055
:103E60006FF8002002F078F8AA2002F069F8CF205D
:103E700002F072F8002002F063F8002002F060F80F
:103E8000002002F05DF8002002F05AF8002002F055
:103E900057F8002002F054F8002002F051F80020FA
:103EA00002F04EF8002002F04BF8002002F048F833
:103EB000002002F045F8002002F042F8002002F055
:103EC0003FF8002002F03CF8002002F039F8002012
:103ED00002F036F8002002F033F8F02002F03CF84F
:103EE000002002F02DF8502002F02AF8002002F005
:103EF00027F8002002F024F8002002F021F8F32037
:103F000002F02AF8002002F01BF8F92002F024F851
:103F1000062002F015F8102002F012F8292002F015
:103F20000FF8002002F00CF83A2002F015F85520A6
:103F300002F006F8112002F00FF86420FDF7C0FD32
:103F4000292002F009F8352002F006F8002001F0DF
:103F5000F7FF512002F000F8FF2001F0F1FF53209D
:103F600001F0FAFF2C2001F0EBFF552001F0F4FFE7
:103F7000822001F0E5FF2C2001F0EEFF10BD10B50E
:103F800055214FF4704001F0FDFFAA214FF20100CE
:103F900001F0F8FF52214FF2020001F0F3FF082177
:103FA0004FF2030001F0EEFF01214FF2040001F097
:103FB000E9FF0D214FF4304001F0E4FF0D214BF2F9
:103FC000010001F0DFFF0D214BF2020001F0DAFFEA
:103FD00034214FF4364001F0D5FF34214BF201601B
:103FE00001F0D0FF34214BF2026001F0CBFF0D2134
:103FF0004FF4314001F0C6FF0D214BF2011001F0EA
:10400000C1FF0D214BF2021001F0BCFF34214FF42F
:10401000374001F0B7FF34214BF2017001F0B2FFDD
:1040200034214BF2027001F0ADFF00214FF4324019
:1040300001F0A8FF00214BF2012001F0A3FF0021B5
:104040004BF2022001F09EFF24214FF4384001F092
:1040500099FF24214BF6010001F094FF24214BF637
:10406000020001F08FFF01214FF43F4001F08AFF71
:104070000F214FF4334001F085FF0F214BF2013047
:1040800001F080FF0F214BF2023001F07BFF342161
:104090004FF4394001F076FF34214BF6011001F066
:1040A00071FF34214BF6021001F06CFF08214FF430
:1040B000354001F067FF08214BF2015001F062FF2B
:1040C00008214BF2025001F05DFF03214FF4424002
:1040D00001F058FF24214FF43A4001F053FF24210E
:1040E0004BF6012001F04EFF24214BF6022001F097
:1040F00049FF00214FF43C4001F044FF78214BF68A
:10410000014001F03FFF00214BF6024001F03AFF71
:1041100000214FF43D4001F035FF78214BF601506E
:1041200001F030FF00214BF6025001F02BFF00217F
:104130004FF43E4001F026FF64214BF6016001F090
:1041400021FF00214FF4514001F01CFF33214DF2BB
:10415000011001F017FF00214DF2021001F012FFD3
:1041600034214DF2031001F00DFF00214DF2041037
:1041700001F008FF3A214DF2051001F003FF002184
:104180004DF2061001F0FEFE4A214DF2071001F03B
:10419000F9FE00214DF2081001F0F4FE5C214DF211
:1041A000091001F0EFFE00214DF20A1001F0EAFEC5
:1041B00081214DF20B1001F0E5FE00214DF20C10B3
:1041C00001F0E0FEA6214DF20D1001F0DBFE002112
:1041D0004DF20E1001F0D6FEE5214DF20F1001F068
:1041E000D1FE01214DF2101001F0CCFE13214DF251
:1041F000111001F0C7FE01214DF2121001F0C2FEB4
:1042000054214DF2131001F0BDFE01214DF21410A6
:1042100001F0B8FE82214DF2151001F0B3FE01212C
:104220004DF2161001F0AEFECA214DF2171001F04A
:10423000A9FE02214DF2181001F0A4FE00214DF25A
:10424000191001F09FFE02214DF21A1001F09AFEA2
:1042500001214DF21B1001F095FE02214DF21C10C0
:1042600001F090FE34214DF21D1001F08BFE022171
:104270004DF21E1001F086FE67214DF21F1001F075
:1042800081FE02214DF2201001F07CFE84214DF2CE
:10429000211001F077FE02214DF2221001F072FE92
:1042A000A4214DF2231001F06DFE02214DF22410E5
:1042B00001F068FEB7214DF2251001F063FE0221E6
:1042C0004DF2261001F05EFECF214DF2271001F0D5
:1042D00059FE02214DF2281001F054FEDE214DF26C
:1042E000291001F04FFE02214DF22A1001F04AFE82
:1042F000F2214DF22B1001F045FE02214DF22C105F
:1043000001F040FEFE214DF22D1001F03BFE032195
:104310004DF22E1001F036FE10214DF22F1001F05B
:1043200031FE03214DF2301001F02CFE33214DF20D
:10433000311001F027FE03214DF2321001F022FE70
:104340006D214DF2331001F01DFE00214FF452405B
:1043500001F018FE33214DF2012001F013FE00217F
:104360004DF2022001F00EFE34214DF2032001F047
:1043700009FE00214DF2042001F004FE3A214DF225
:10438000052001F0FFFD00214DF2062001F0FAFDAD
:104390004A214DF2072001F0F5FD00214DF20820E1
:1043A00001F0F0FD5C214DF2092001F0EBFD002150
:1043B0004DF20A2001F0E6FD81214DF20B2001F0C3
:1043C000E1FD00214DF20C2001F0DCFDA6214DF2B3
:1043D0000D2001F0D7FD00214DF20E2001F0D2FD9D
:1043E000E5214DF20F2001F0CDFD01214DF210200D
:1043F00001F0C8FD13214DF2112001F0C3FD012190
:104400004DF2122001F0BEFD54214DF2132001F0B7
:10441000B9FD01214DF2142001F0B4FD82214DF2CD
:10442000152001F0AFFD01214DF2162001F0AAFD8B
:10443000CA214DF2172001F0A5FD02214DF21820EE
:1044400001F0A0FD00214DF2192001F09BFD022199
:104450004DF21A2001F096FD01214DF21B2001F0D2
:1044600091FD02214DF21C2001F08CFD34214DF212
:104470001D2001F087FD02214DF21E2001F082FD7A
:1044800067214DF21F2001F07DFD02214DF2202019
:1044900001F078FD84214DF2212001F073FD02210D
:1044A0004DF2222001F06EFDA4214DF2232001F0F7
:1044B00069FD02214DF2242001F064FDB7214DF287
:1044C000252001F05FFD02214DF2262001F05AFD6A
:1044D000CF214DF2272001F055FD02214DF2282079
:1044E00001F050FDDE214DF2292001F04BFD0221AB
:1044F0004DF22A2001F046FDF2214DF22B2001F071
:1045000041FD02214DF22C2001F03CFDFE214DF237
:104510002D2001F037FD03214DF22E2001F032FD58
:1045200010214DF22F2001F02DFD03214DF23020FE
:1045300001F028FD33214DF2312001F023FD03214C
:104540004DF2322001F01EFD6D214DF2332001F0BD
:1045500019FD00214FF4534001F014FD33214DF2B9
:10456000013001F00FFD00214DF2023001F00AFD93
:1045700034214DF2033001F005FD00214DF20430ED
:1045800001F000FD3A214DF2053001F0FBFC002165
:104590004DF2063001F0F6FC4A214DF2073001F0F1
:1045A000F1FC00214DF2083001F0ECFC5C214DF2F1
:1045B000093001F0E7FC00214DF20A3001F0E2FC85
:1045C00081214DF20B3001F0DDFC00214DF20C3069
:1045D00001F0D8FCA6214DF20D3001F0D3FC0021F2
:1045E0004DF20E3001F0CEFCE5214DF20F3001F01E
:1045F000C9FC01214DF2103001F0C4FC13214DF231
:10460000113001F0BFFC01214DF2123001F0BAFC73
:1046100054214DF2133001F0B5FC01214DF214305C
:1046200001F0B0FC82214DF2153001F0ABFC01210C
:104630004DF2163001F0A6FCCA214DF2173001F000
:10464000A1FC02214DF2183001F09CFC00214DF23A
:10465000193001F097FC02214DF21A3001F092FC62
:1046600001214DF21B3001F08DFC02214DF21C3076
:1046700001F088FC34214DF21D3001F083FC022151
:104680004DF21E3001F07EFC67214DF21F3001F02B
:1046900079FC02214DF2203001F074FC84214DF2AE
:1046A000213001F06FFC02214DF2223001F06AFC52
:1046B000A4214DF2233001F065FC02214DF224309B
:1046C00001F060FCB7214DF2253001F05BFC0221C6
:1046D0004DF2263001F056FCCF214DF2273001F08B
:1046E00051FC02214DF2283001F04CFCDE214DF24C
:1046F000293001F047FC02214DF22A3001F042FC42
:10470000F2214DF22B3001F03DFC02214DF22C3014
:1047100001F038FCFE214DF22D3001F033FC032175
:104720004DF22E3001F02EFC10214DF22F3001F011
:1047300029FC03214DF2303001F024FC33214DF2ED
:10474000313001F01FFC03214DF2323001F01AFC30
:104750006D214DF2333001F015FC00214FF454402F
:1047600001F010FC33214DF2014001F00BFC00215F
:104770004DF2024001F006FC34214DF2034001F0FD
:1047800001FC00214DF2044001F0FCFB3A214DF206
:10479000054001F0F7FB00214DF2064001F0F2FB6D
:1047A0004A214DF2074001F0EDFB00214DF2084097
:1047B00001F0E8FB5C214DF2094001F0E3FB002130
:1047C0004DF20A4001F0DEFB81214DF20B4001F079
:1047D000D9FB00214DF20C4001F0D4FBA6214DF293
:1047E0000D4001F0CFFB00214DF20E4001F0CAFB5D
:1047F000E5214DF20F4001F0C5FB01214DF21040C3
:1048000001F0C0FB13214DF2114001F0BBFB01216F
:104810004DF2124001F0B6FB54214DF2134001F06D
:10482000B1FB01214DF2144001F0ACFB82214DF2AD
:10483000154001F0A7FB01214DF2164001F0A2FB4B
:10484000CA214DF2174001F09DFB02214DF21840A4
:1048500001F098FB00214DF2194001F093FB022179
:104860004DF21A4001F08EFB01214DF21B4001F088
:1048700089FB02214DF21C4001F084FB34214DF2F2
:104880001D4001F07FFB02214DF21E4001F07AFB3A
:1048900067214DF21F4001F075FB02214DF22040CF
:1048A00001F070FB84214DF2214001F06BFB0221ED
:1048B0004DF2224001F066FBA4214DF2234001F0AD
:1048C00061FB02214DF2244001F05CFBB7214DF267
:1048D000254001F057FB02214DF2264001F052FB2A
:1048E000CF214DF2274001F04DFB02214DF228402F
:1048F00001F048FBDE214DF2294001F043FB02218B
:104900004DF22A4001F03EFBF2214DF22B4001F026
:1049100039FB02214DF22C4001F034FBFE214DF217
:104920002D4001F02FFB03214DF22E4001F02AFB18
:1049300010214DF22F4001F025FB03214DF23040B4
:1049400001F020FB33214DF2314001F01BFB03212C
:104950004DF2324001F016FB6D214DF2334001F073
:1049600011FB00214FF4554001F00CFB33214DF2B7
:10497000015001F007FB00214DF2025001F002FB53
:1049800034214DF2035001F0FDFA00214DF20450A4
:1049900001F0F8FA3A214DF2055001F0F3FA002146
:1049A0004DF2065001F0EEFA4A214DF2075001F0A7
:1049B000E9FA00214DF2085001F0E4FA5C214DF2D1
:1049C000095001F0DFFA00214DF20A5001F0DAFA45
:1049D00081214DF20B5001F0D5FA00214DF20C501F
:1049E00001F0D0FAA6214DF20D5001F0CBFA0021D2
:1049F0004DF20E5001F0C6FAE5214DF20F5001F0D4
:104A0000C1FA01214DF2105001F0BCFA13214DF210
:104A1000115001F0B7FA01214DF2125001F0B2FA33
:104A200054214DF2135001F0ADFA01214DF2145012
:104A300001F0A8FA82214DF2155001F0A3FA0121EC
:104A40004DF2165001F09EFACA214DF2175001F0B6
:104A500099FA02214DF2185001F094FA00214DF21A
:104A6000195001F08FFA02214DF21A5001F08AFA22
:104A700001214DF21B5001F085FA02214DF21C502C
:104A800001F080FA34214DF21D5001F07BFA022131
:104A90004DF21E5001F076FA67214DF21F5001F0E1
:104AA00071FA02214DF2205001F06CFA84214DF28E
:104AB000215001F067FA02214DF2225001F062FA12
:104AC000A4214DF2235001F05DFA02214DF2245051
:104AD00001F058FAB7214DF2255001F053FA0221A6
:104AE0004DF2265001F04EFACF214DF2275001F041
:104AF00049FA02214DF2285001F044FADE214DF22C
:104B0000295001F03FFA02214DF22A5001F03AFA01
:104B1000F2214DF22B5001F035FA02214DF22C50CA
:104B200001F030FAFE214DF22D5001F02BFA032155
:104B30004DF22E5001F026FA10214DF22F5001F0C7
:104B400021FA03214DF2305001F01CFA33214DF2CD
:104B5000315001F017FA03214DF2325001F012FAF0
:104B60006D214DF2335001F00DFA00214FF4564003
:104B700001F008FA33214DF2016001F003FA00213F
:104B80004DF2026001F0FEF934214DF2036001F0B4
:104B9000F9F900214DF2046001F0F4F93A214DF2E7
:104BA000056001F0EFF900214DF2066001F0EAF92D
:104BB0004A214DF2076001F0E5F900214DF208604D
:104BC00001F0E0F95C214DF2096001F0DBF9002110
:104BD0004DF20A6001F0D6F981214DF20B6001F02F
:104BE000D1F900214DF20C6001F0CCF9A6214DF273
:104BF0000D6001F0C7F900214DF20E6001F0C2F91D
:104C0000E5214DF20F6001F0BDF901214DF2106078
:104C100001F0B8F913214DF2116001F0B3F901214F
:104C20004DF2126001F0AEF954214DF2136001F023
:104C3000A9F901214DF2146001F0A4F982214DF28D
:104C4000156001F09FF901214DF2166001F09AF90B
:104C5000CA214DF2176001F095F902214DF218605A
:104C600001F090F900214DF2196001F08BF9022159
:104C70004DF21A6001F086F901214DF21B6001F03E
:104C800081F902214DF21C6001F07CF934214DF2D2
:104C90001D6001F077F902214DF21E6001F072F9FA
:104CA00067214DF21F6001F06DF902214DF2206085
:104CB00001F068F984214DF2216001F063F90221CD
:104CC0004DF2226001F05EF9A4214DF2236001F063
:104CD00059F902214DF2246001F054F9B7214DF247
:104CE000256001F04FF902214DF2266001F04AF9EA
:104CF000CF214DF2276001F045F902214DF22860E5
:104D000001F040F9DE214DF2296001F03BF902216A
:104D10004DF22A6001F036F9F2214DF22B6001F0DC
:104D200031F902214DF22C6001F02CF9FE214DF2F7
:104D30002D6001F027F903214DF22E6001F022F9D8
:104D400010214DF22F6001F01DF903214DF230606A
:104D500001F018F933214DF2316001F013F903210C
:104D60004DF2326001F00EF96D214DF2336001F029
:104D700009F955214FF4704001F004F9AA214FF2CE
:104D8000010001F0FFF852214FF2020001F0FAF8A1
:104D900008214FF2030001F0F5F800214FF2040062
:104DA00001F0F0F8CC214FF4314001F0EBF8002194
:104DB0004BF2011001F0E6F805214FF4364001F006
:104DC000E1F870214FF4374001F0DCF870214BF22C
:104DD000017001F0D7F801214FF4384001F0D2F80A
:104DE00003214BF6010001F0CDF803214BF6020040
:104DF00001F0C8F803214BF6030001F0C3F80221CB
:104E00004FF43C4001F0BEF800214BF6014001F0A8
:104E1000B9F800214BF6024001F0B4F8D0214FF46C
:104E2000494001F0AFF802214CF6011001F0AAF858
:104E300050214CF6021001F0A5F850214CF6031059
:104E400001F0A0F850214CF6041001F09BF800216D
:104E50004FF4545001F096F855214FF4685001F08A
:104E600091F84FF4885001F077F87820FCF732FE83
:104E70004FF4245001F070F810BD10B5E22001F09D
:104E80006BF81D2001F05CF8022001F059F80420B5
:104E900001F056F86420FCF71DFEE02001F05CF8FC
:104EA000012001F04DF80A20FCF70AFEE02001F095
:104EB00053F8032001F044F80C20FCF701FE012018
:104EC00001F04AF80A20FCF7FBFDE62001F044F867
:104ED0002F2001F035F8FF2001F032F8FF2001F01B
:104EE0002FF8B02001F038F8202001F029F8002038
:104EF00001F026F8032001F023F840F21F3001F002
:104F00001FF8012001F01CF840F2DF1001F018F842
:104F1000002001F015F8B42001F01EF8042001F083
:104F20000FF840F21F4001F00BF8002001F008F8E4
:104F30002E2001F005F8002001F002F8002000F01A
:104F4000FFFF002000F0FCFF002000F0F9FFB6207A
:104F500001F002F8022000F0F3FF4FF4037000F0BC
:104F6000EFFF002000F0ECFF172000F0E9FF152014
:104F700000F0E6FF002000F0E3FF002000F0E0FF7B
:104F8000F02000F0E9FF032000F0DAFF292000F014
:104F9000E3FFD02000F0E0FF002000F0D1FFBE20B2
:104FA00000F0DAFF052000F0CBFFFE2000F0C8FF84
:104FB000012000F0C5FF002000F0C2FF002000F03B
:104FC000BFFF002000F0BCFFB82000F0C5FF0320A9
:104FD00000F0B6FF012000F0B3FFBA2000F0BCFFE4
:104FE000012000F0ADFF10BD10B5112000F0B4FF9E
:104FF0007820FCF765FD362000F0AEFF002000F0C1
:105000009FFF3A2000F0A8FF052000F099FFB22092
:1050100000F0A2FF0C2000F093FF0C2000F090FFA6
:10502000002000F08DFF332000F08AFF332000F0D5
:1050300087FFB72000F090FF352000F081FFBB20F4
:1050400000F08AFF322000F07BFFC02000F084FFD8
:105050000C2000F075FFC22000F07EFF012000F060
:105060006FFFC32000F078FF102000F069FFC4201C
:1050700000F072FF202000F063FFC62000F06CFFFC
:105080000F2000F05DFFD02000F066FFA42000F0AC
:1050900057FFA12000F054FFE02000F05DFFD0207A
:1050A00000F04EFF002000F04BFF022000F048FF10
:1050B000072000F045FF0A2000F042FF282000F002
:1050C0003FFF322000F03CFF442000F039FF422037
:1050D00000F036FF062000F033FF0E2000F030FF16
:1050E000122000F02DFF142000F02AFF172000F0FE
:1050F00027FFE12000F030FFD02000F021FF00204A
:1051000000F01EFF022000F01BFF072000F018FF38
:105110000A2000F015FF282000F012FF312000F0D7
:105120000FFF542000F00CFF472000F009FF0E2075
:1051300000F006FF1C2000F003FF172000F000FF26
:105140001B2000F0FDFE1E2000F0FAFE2A2000F0D9
:1051500003FF002000F0F4FE002000F0F1FE00202C
:1051600000F0EEFEEF2000F0EBFE2B2000F0F4FE4E
:10517000002000F0E5FE002000F0E2FE012000F03B
:10518000DFFE3F2000F0DCFE292000F0E5FE10BD30
:1051900010B5112000F0E0FE7820FCF791FC3620DD
:1051A00000F0DAFE482000F0CBFE3A2000F0D4FEFA
:1051B000552000F0C5FEF02000F0CEFEC32000F028
:1051C000BFFEF02000F0C8FE962000F0B9FEB4202B
:1051D00000F0C2FE012000F0B3FEB62000F0BCFEDD
:1051E0000A2000F0ADFEA22000F0AAFEB72000F0D9
:1051F000B3FEC62000F0A4FEB92000F0ADFE0220F0
:1052000000F09EFEE02000F09BFEC02000F0A4FE17
:10521000802000F095FE162000F092FEC12000F0E4
:105220009BFE192000F08CFEC22000F095FEA72006
:1052300000F086FEC52000F08FFE162000F080FEF4
:10524000E82000F089FE402000F07AFE8A2000F07D
:1052500077FE002000F074FE002000F071FE29208F
:1052600000F06EFE192000F06BFEA52000F068FE35
:10527000332000F065FEE02000F06EFEF02000F02C
:105280005FFE072000F05CFE0D2000F059FE0420B8
:1052900000F056FE052000F053FE142000F050FEF2
:1052A000362000F04DFE542000F04AFE4C2000F065
:1052B00047FE382000F044FE132000F041FE142089
:1052C00000F03EFE2E2000F03BFE342000F038FEC1
:1052D000E12000F041FEF02000F032FE102000F04E
:1052E0002FFE142000F02CFE0E2000F029FE0C20D2
:1052F00000F026FE082000F023FE352000F020FEFE
:10530000442000F01DFE4C2000F01AFE262000F084
:1053100017FE102000F014FE122000F011FE2C20C9
:1053200000F00EFE322000F00BFEF02000F014FE24
:105330003C2000F005FEF02000F00EFE692000F099
:10534000FFFD7820FCF7BCFB212000F005FE2920A2
:1053500000F002FE10BD00002DE9F84F05460E4694
:1053600017469846DDF828904FF0000B1448006867
:1053700040B143463A4631462846CDF8009000F009
:10538000D7FE1BE0781B401C1FFA80FB344613E05D
:105390002146284600F03EFC00F0EAFD4FF0000AEE
:1053A00006E00849A1F800900AF101001FFA80FA0E
:1053B000DA45F6DB601C84B24445E9DDBDE8F88FD0
:1053C000A0000020000008601CB501F07BFAFE4937
:1053D00088800846808810B100F06AFF0AE200BFAA
:1053E000FA48006840F00800F849086000BF00BFB4
:1053F0000846006840F00800086000BF00BF08468B
:10540000006840F00800086000BF00BF0846006860
:1054100040F00800086000BF00BF0846006840F088
:105420000200086000BF0846006840F018000860ED
:10543000E6480830006840F00100E449083108609F
:105440000120032100230222CDE900108021E04841
:1054500001F066FE0120032100230222CDE90010A5
:105460002021DB4801F05CFE012003210023022201
:10547000CDE900101021D64801F052FE0120032191
:1054800000230222CDE900104103D14801F048FE7B
:105490000120032100230246CDE900102021CD4840
:1054A00001F03EFE0C228021C94801F0F1FD0C22E2
:1054B0002021C74801F0ECFD0C221021C44801F066
:1054C000E7FD0C224FF40051C14801F0E1FD01203D
:1054D000032100230222CDE900104CF20371BC48E5
:1054E00001F01EFE0120032100230222CDE900105D
:1054F0004FF68071B84801F013FE0C224CF2037194
:10550000B34801F0C5FD0C224FF68071B24801F09E
:10551000BFFD00204FF0204108604860AF4908609F
:105520004FF02040006840F480504FF02041086068
:105530000846006840F4804008600846006840F073
:10554000100008600846406848600846406840F01F
:105550000F0048600846406840F48C4048609F480F
:105560000068C1F804010846D0F8040140F00A00C0
:10557000C1F804010846D0F8040140F42060C1F8E5
:1055800004010846006840F001000860944800F0FB
:1055900013FAD32000F0E0FC00F014FA8A49888066
:1055A00000F010FA8849888000F00CFA864988805B
:1055B000084680884FF6FF7101EA00208249888002
:1055C00000F000FA8049898808437F4988800846AE
:1055D000808849F2413188427ED0042000F0BCFC32
:1055E00000F0F0F97849888000F0ECF9764988807D
:1055F00000F0E8F974498880084680884FF6FF710A
:1056000001EA00207049888000F0DCF96E49898841
:1056100008436D4988800846808848F25251884284
:1056200003D147F28970684988806748808847F2CB
:1056300089718842D0D0D42000F08EFC00F0C2F9ED
:105640006149888000F0BEF95F49888000F0BAF9AE
:105650005D498880084680884FF6FF7101EA002086
:105660005949888000F0AEF957498988084356495E
:1056700088800846808845F210318842ACD0D3201B
:1056800000F06AFC00F09EF94F49888000F09AF91A
:105690004D49888000F096F94B49888008468088FB
:1056A0004FF6FF7101EA00204749888000F08AF92F
:1056B000454989880843444988800846808847F2DC
:1056C0009671884288D055214FF4704000F05AFC02
:1056D000AA214FF2010000E08CE000F053FC5221BF
:1056E0004FF2020000F04EFC08214FF2030000F0E0
:1056F00049FC01214FF2040000F044FC4FF4454006
:1057000000F02AFC00F05EF92F4988800846808866
:105710004FF6FF7101EA00202B4988804CF20150BE
:1057200000F01AFC00F04EF9274989880843264901
:1057300088800520FCF7C4F92348808845F2105181
:10574000884257D0D32000F007FC00F03BF91E49F7
:10575000888000F037F91C49888000F033F91A4935
:105760008880084680884FF6FF7101EA00201649BC
:10577000888000F027F914498988084312498880F5
:105780000846808849F60601884233D0A12000F0FF
:10579000E3FB00F017F90C49888000F013F90A497F
:1057A0008880084680884FF6FF7101EA002006498C
:1057B000888000F007F904498988084302498880F5
:1057C000084680880EE00000920000203038024039
:1057D000000C02400004024000100240040100A03E
:1057E000FFFF010045F26171884203D141F6631069
:1057F0006B4988806A4881886AA0FAF761FD684829
:10580000808847F28971884202D1FFF7EDFB37E0CB
:105810006348808849F24131884202D1FDF780F91E
:105820002EE05F48808845F21031884202D1FDF7B2
:105830002DFC25E05A48808847F29671884202D1B3
:10584000FFF7A6FC1CE05648808845F210518842BC
:1058500002D1FEF794FB13E05148808849F6060117
:10586000884202D1FDF772FA0AE04D48808841F67D
:105870006311884204D1FFF700FB642000F030FB85
:105880004748808847F2897188421DD1484800689E
:1058900020F00F004FF02041C1F804010846D0F875
:1058A000040120F47060C1F804010846D0F8040136
:1058B00040F00500C1F804010846D0F8040140F4A6
:1058C000A060C1F804015EE03548808845F21051BF
:1058D000884205D03248808841F6631188421DD144
:1058E0003348006820F00F004FF02041C1F8040158
:1058F0000846D0F8040120F47060C1F8040108469D
:10590000D0F8040140F00200C1F804010846D0F8C4
:10591000040140F40070C1F8040134E0204880889C
:1059200047F29671884211D01D48808849F2413172
:1059300088420BD01A48808849F60601884205D073
:105940001748808845F2103188421CD118480068F9
:1059500020F00F004FF02041C1F804010846D0F8B4
:10596000040120F47060C1F804010846D0F8040175
:1059700040F00300C1F804010846D0F8040140F4E7
:105980004070C1F804010020FCF73CFF01222021F7
:10599000084801F0B9FB4FF6FF70FCF70FFF1CBD84
:1059A000920000204C43442049443A25780D0A00D7
:1059B000040100A00004024000BF011EA0F101008C
:1059C000FBD1704708B5034800880090BDF800007F
:1059D00008BD000000000860F0B50546002400275F
:1059E0008B488079012805D18948808841F6631168
:1059F000884208D186488079F0B98548808841F688
:105A00006311884218D1082D15D2DFE805F004068D
:105A1000080A0C0E101206250DE007250BE00425E0
:105A200009E0052507E0012505E0002503E0032541
:105A300001E0022500BF00BF082D1CD2DFE805F001
:105A40000406090C0F12151800BF14E044F080047E
:105A500011E044F040040EE044F0C0040BE044F0D8
:105A6000200408E044F0600405E044F0A00402E0F3
:105A700044F0E00400BF00BF36276548808845F247
:105A80001051884200D13F026148808849F241317B
:105A900088420BD05E48808847F28971884205D0E1
:105AA0005B48808847F29671884201D144F008042F
:105AB0002146384600F066FA5548808841F6631161
:105AC00088421DD004F0200068B151480088504938
:105AD0004988884214DA4E48068840884C49088034
